{
  "contractName": "DoublePoggerino",
  "abi": [
    {
      "anonymous": false,
      "inputs": [
        {
          "indexed": true,
          "internalType": "address",
          "name": "owner",
          "type": "address"
        },
        {
          "indexed": true,
          "internalType": "address",
          "name": "spender",
          "type": "address"
        },
        {
          "indexed": false,
          "internalType": "uint256",
          "name": "value",
          "type": "uint256"
        }
      ],
      "name": "Approval",
      "type": "event"
    },
    {
      "anonymous": false,
      "inputs": [
        {
          "indexed": false,
          "internalType": "uint256",
          "name": "tokenAmount",
          "type": "uint256"
        },
        {
          "indexed": false,
          "internalType": "uint256",
          "name": "ethAmount",
          "type": "uint256"
        }
      ],
      "name": "BoughtTokenLP",
      "type": "event"
    },
    {
      "anonymous": false,
      "inputs": [
        {
          "indexed": false,
          "internalType": "uint256",
          "name": "lpTokenAmount",
          "type": "uint256"
        }
      ],
      "name": "BurnLiquidity",
      "type": "event"
    },
    {
      "anonymous": false,
      "inputs": [
        {
          "indexed": false,
          "internalType": "uint8",
          "name": "feeDecimals",
          "type": "uint8"
        },
        {
          "indexed": false,
          "internalType": "uint32",
          "name": "feePercentage",
          "type": "uint32"
        }
      ],
      "name": "FeeUpdated",
      "type": "event"
    },
    {
      "anonymous": false,
      "inputs": [
        {
          "indexed": false,
          "internalType": "uint256",
          "name": "tokenAmount",
          "type": "uint256"
        },
        {
          "indexed": false,
          "internalType": "uint256",
          "name": "ethAmount",
          "type": "uint256"
        }
      ],
      "name": "LockLiquidity",
      "type": "event"
    },
    {
      "anonymous": false,
      "inputs": [
        {
          "indexed": false,
          "internalType": "uint32",
          "name": "fogLockPercentage",
          "type": "uint32"
        },
        {
          "indexed": false,
          "internalType": "uint32",
          "name": "tokenLockPercentage",
          "type": "uint32"
        }
      ],
      "name": "LocksUpdate",
      "type": "event"
    },
    {
      "anonymous": false,
      "inputs": [
        {
          "indexed": false,
          "internalType": "address",
          "name": "account",
          "type": "address"
        }
      ],
      "name": "Paused",
      "type": "event"
    },
    {
      "anonymous": false,
      "inputs": [
        {
          "indexed": true,
          "internalType": "address",
          "name": "account",
          "type": "address"
        }
      ],
      "name": "PauserAdded",
      "type": "event"
    },
    {
      "anonymous": false,
      "inputs": [
        {
          "indexed": true,
          "internalType": "address",
          "name": "account",
          "type": "address"
        }
      ],
      "name": "PauserRemoved",
      "type": "event"
    },
    {
      "anonymous": false,
      "inputs": [
        {
          "indexed": false,
          "internalType": "uint256",
          "name": "ethAmount",
          "type": "uint256"
        }
      ],
      "name": "RewardedEth",
      "type": "event"
    },
    {
      "anonymous": false,
      "inputs": [
        {
          "indexed": false,
          "internalType": "uint256",
          "name": "tokenAmount",
          "type": "uint256"
        }
      ],
      "name": "RewardedFog",
      "type": "event"
    },
    {
      "anonymous": false,
      "inputs": [
        {
          "indexed": false,
          "internalType": "uint32",
          "name": "fogRewardPercentage",
          "type": "uint32"
        }
      ],
      "name": "RewardsUpdate",
      "type": "event"
    },
    {
      "anonymous": false,
      "inputs": [
        {
          "indexed": false,
          "internalType": "address",
          "name": "tokenAddressPair",
          "type": "address"
        }
      ],
      "name": "TokenAddressPairUpdate",
      "type": "event"
    },
    {
      "anonymous": false,
      "inputs": [
        {
          "indexed": false,
          "internalType": "address",
          "name": "tokenAddress",
          "type": "address"
        }
      ],
      "name": "TokenAddressUpdate",
      "type": "event"
    },
    {
      "anonymous": false,
      "inputs": [
        {
          "indexed": true,
          "internalType": "address",
          "name": "from",
          "type": "address"
        },
        {
          "indexed": true,
          "internalType": "address",
          "name": "to",
          "type": "address"
        },
        {
          "indexed": false,
          "internalType": "uint256",
          "name": "value",
          "type": "uint256"
        }
      ],
      "name": "Transfer",
      "type": "event"
    },
    {
      "anonymous": false,
      "inputs": [
        {
          "indexed": false,
          "internalType": "address",
          "name": "account",
          "type": "address"
        }
      ],
      "name": "Unpaused",
      "type": "event"
    },
    {
      "anonymous": false,
      "inputs": [
        {
          "indexed": false,
          "internalType": "address",
          "name": "wethAddress",
          "type": "address"
        }
      ],
      "name": "WethAddressUpdate",
      "type": "event"
    },
    {
      "payable": true,
      "stateMutability": "payable",
      "type": "fallback"
    },
    {
      "constant": false,
      "inputs": [
        {
          "internalType": "address",
          "name": "account",
          "type": "address"
        }
      ],
      "name": "addPauser",
      "outputs": [],
      "payable": false,
      "stateMutability": "nonpayable",
      "type": "function"
    },
    {
      "constant": true,
      "inputs": [
        {
          "internalType": "address",
          "name": "owner",
          "type": "address"
        },
        {
          "internalType": "address",
          "name": "spender",
          "type": "address"
        }
      ],
      "name": "allowance",
      "outputs": [
        {
          "internalType": "uint256",
          "name": "",
          "type": "uint256"
        }
      ],
      "payable": false,
      "stateMutability": "view",
      "type": "function"
    },
    {
      "constant": false,
      "inputs": [
        {
          "internalType": "address",
          "name": "spender",
          "type": "address"
        },
        {
          "internalType": "uint256",
          "name": "value",
          "type": "uint256"
        }
      ],
      "name": "approve",
      "outputs": [
        {
          "internalType": "bool",
          "name": "",
          "type": "bool"
        }
      ],
      "payable": false,
      "stateMutability": "nonpayable",
      "type": "function"
    },
    {
      "constant": true,
      "inputs": [
        {
          "internalType": "address",
          "name": "account",
          "type": "address"
        }
      ],
      "name": "balanceOf",
      "outputs": [
        {
          "internalType": "uint256",
          "name": "",
          "type": "uint256"
        }
      ],
      "payable": false,
      "stateMutability": "view",
      "type": "function"
    },
    {
      "constant": true,
      "inputs": [
        {
          "internalType": "address",
          "name": "",
          "type": "address"
        }
      ],
      "name": "balances",
      "outputs": [
        {
          "internalType": "uint256",
          "name": "",
          "type": "uint256"
        }
      ],
      "payable": false,
      "stateMutability": "view",
      "type": "function"
    },
    {
      "constant": false,
      "inputs": [
        {
          "internalType": "address",
          "name": "spender",
          "type": "address"
        },
        {
          "internalType": "uint256",
          "name": "subtractedValue",
          "type": "uint256"
        }
      ],
      "name": "decreaseAllowance",
      "outputs": [
        {
          "internalType": "bool",
          "name": "",
          "type": "bool"
        }
      ],
      "payable": false,
      "stateMutability": "nonpayable",
      "type": "function"
    },
    {
      "constant": true,
      "inputs": [],
      "name": "feeDecimals",
      "outputs": [
        {
          "internalType": "uint8",
          "name": "",
          "type": "uint8"
        }
      ],
      "payable": false,
      "stateMutability": "view",
      "type": "function"
    },
    {
      "constant": true,
      "inputs": [],
      "name": "feePercentage",
      "outputs": [
        {
          "internalType": "uint32",
          "name": "",
          "type": "uint32"
        }
      ],
      "payable": false,
      "stateMutability": "view",
      "type": "function"
    },
    {
      "constant": true,
      "inputs": [],
      "name": "fogLockPercentage",
      "outputs": [
        {
          "internalType": "uint32",
          "name": "",
          "type": "uint32"
        }
      ],
      "payable": false,
      "stateMutability": "view",
      "type": "function"
    },
    {
      "constant": true,
      "inputs": [],
      "name": "fogRewardPercentage",
      "outputs": [
        {
          "internalType": "uint32",
          "name": "",
          "type": "uint32"
        }
      ],
      "payable": false,
      "stateMutability": "view",
      "type": "function"
    },
    {
      "constant": false,
      "inputs": [
        {
          "internalType": "address",
          "name": "spender",
          "type": "address"
        },
        {
          "internalType": "uint256",
          "name": "addedValue",
          "type": "uint256"
        }
      ],
      "name": "increaseAllowance",
      "outputs": [
        {
          "internalType": "bool",
          "name": "",
          "type": "bool"
        }
      ],
      "payable": false,
      "stateMutability": "nonpayable",
      "type": "function"
    },
    {
      "constant": true,
      "inputs": [
        {
          "internalType": "address",
          "name": "account",
          "type": "address"
        }
      ],
      "name": "isPauser",
      "outputs": [
        {
          "internalType": "bool",
          "name": "",
          "type": "bool"
        }
      ],
      "payable": false,
      "stateMutability": "view",
      "type": "function"
    },
    {
      "constant": true,
      "inputs": [],
      "name": "liquidityRewardPercentage",
      "outputs": [
        {
          "internalType": "uint32",
          "name": "",
          "type": "uint32"
        }
      ],
      "payable": false,
      "stateMutability": "view",
      "type": "function"
    },
    {
      "constant": false,
      "inputs": [],
      "name": "pause",
      "outputs": [],
      "payable": false,
      "stateMutability": "nonpayable",
      "type": "function"
    },
    {
      "constant": true,
      "inputs": [],
      "name": "paused",
      "outputs": [
        {
          "internalType": "bool",
          "name": "",
          "type": "bool"
        }
      ],
      "payable": false,
      "stateMutability": "view",
      "type": "function"
    },
    {
      "constant": false,
      "inputs": [],
      "name": "renouncePauser",
      "outputs": [],
      "payable": false,
      "stateMutability": "nonpayable",
      "type": "function"
    },
    {
      "constant": true,
      "inputs": [],
      "name": "tokenAddress",
      "outputs": [
        {
          "internalType": "address",
          "name": "",
          "type": "address"
        }
      ],
      "payable": false,
      "stateMutability": "view",
      "type": "function"
    },
    {
      "constant": true,
      "inputs": [],
      "name": "tokenAddressPair",
      "outputs": [
        {
          "internalType": "address",
          "name": "",
          "type": "address"
        }
      ],
      "payable": false,
      "stateMutability": "view",
      "type": "function"
    },
    {
      "constant": true,
      "inputs": [],
      "name": "tokenLockPercentage",
      "outputs": [
        {
          "internalType": "uint32",
          "name": "",
          "type": "uint32"
        }
      ],
      "payable": false,
      "stateMutability": "view",
      "type": "function"
    },
    {
      "constant": true,
      "inputs": [],
      "name": "totalSupply",
      "outputs": [
        {
          "internalType": "uint256",
          "name": "",
          "type": "uint256"
        }
      ],
      "payable": false,
      "stateMutability": "view",
      "type": "function"
    },
    {
      "constant": false,
      "inputs": [
        {
          "internalType": "address",
          "name": "to",
          "type": "address"
        },
        {
          "internalType": "uint256",
          "name": "value",
          "type": "uint256"
        }
      ],
      "name": "transfer",
      "outputs": [
        {
          "internalType": "bool",
          "name": "",
          "type": "bool"
        }
      ],
      "payable": false,
      "stateMutability": "nonpayable",
      "type": "function"
    },
    {
      "constant": false,
      "inputs": [
        {
          "internalType": "address",
          "name": "from",
          "type": "address"
        },
        {
          "internalType": "address",
          "name": "to",
          "type": "address"
        },
        {
          "internalType": "uint256",
          "name": "value",
          "type": "uint256"
        }
      ],
      "name": "transferFrom",
      "outputs": [
        {
          "internalType": "bool",
          "name": "",
          "type": "bool"
        }
      ],
      "payable": false,
      "stateMutability": "nonpayable",
      "type": "function"
    },
    {
      "constant": true,
      "inputs": [],
      "name": "uniswapV2Pair",
      "outputs": [
        {
          "internalType": "address",
          "name": "",
          "type": "address"
        }
      ],
      "payable": false,
      "stateMutability": "view",
      "type": "function"
    },
    {
      "constant": true,
      "inputs": [],
      "name": "uniswapV2Router",
      "outputs": [
        {
          "internalType": "address",
          "name": "",
          "type": "address"
        }
      ],
      "payable": false,
      "stateMutability": "view",
      "type": "function"
    },
    {
      "constant": false,
      "inputs": [],
      "name": "unpause",
      "outputs": [],
      "payable": false,
      "stateMutability": "nonpayable",
      "type": "function"
    },
    {
      "constant": true,
      "inputs": [],
      "name": "wethAddress",
      "outputs": [
        {
          "internalType": "address",
          "name": "",
          "type": "address"
        }
      ],
      "payable": false,
      "stateMutability": "view",
      "type": "function"
    },
    {
      "constant": false,
      "inputs": [
        {
          "internalType": "uint256",
          "name": "_fogDensity",
          "type": "uint256"
        }
      ],
      "name": "fogRollingIn",
      "outputs": [],
      "payable": false,
      "stateMutability": "nonpayable",
      "type": "function"
    },
    {
      "constant": false,
      "inputs": [],
      "name": "rewardLiquidityProviders",
      "outputs": [],
      "payable": false,
      "stateMutability": "nonpayable",
      "type": "function"
    },
    {
      "constant": false,
      "inputs": [
        {
          "internalType": "uint256",
          "name": "_ethReceived",
          "type": "uint256"
        }
      ],
      "name": "_rewardLiquidityProvidersETH",
      "outputs": [],
      "payable": false,
      "stateMutability": "nonpayable",
      "type": "function"
    },
    {
      "constant": false,
      "inputs": [],
      "name": "burnLiquidity",
      "outputs": [],
      "payable": false,
      "stateMutability": "nonpayable",
      "type": "function"
    },
    {
      "constant": true,
      "inputs": [],
      "name": "fogDensity",
      "outputs": [
        {
          "internalType": "uint256",
          "name": "",
          "type": "uint256"
        }
      ],
      "payable": false,
      "stateMutability": "view",
      "type": "function"
    },
    {
      "constant": true,
      "inputs": [],
      "name": "ERC20LpSupply",
      "outputs": [
        {
          "internalType": "uint256",
          "name": "",
          "type": "uint256"
        }
      ],
      "payable": false,
      "stateMutability": "view",
      "type": "function"
    },
    {
      "constant": true,
      "inputs": [],
      "name": "lockedSupply",
      "outputs": [
        {
          "internalType": "uint256",
          "name": "",
          "type": "uint256"
        }
      ],
      "payable": false,
      "stateMutability": "view",
      "type": "function"
    },
    {
      "constant": true,
      "inputs": [],
      "name": "burnedSupply",
      "outputs": [
        {
          "internalType": "uint256",
          "name": "",
          "type": "uint256"
        }
      ],
      "payable": false,
      "stateMutability": "view",
      "type": "function"
    },
    {
      "constant": true,
      "inputs": [],
      "name": "burnableLiquidity",
      "outputs": [
        {
          "internalType": "uint256",
          "name": "",
          "type": "uint256"
        }
      ],
      "payable": false,
      "stateMutability": "view",
      "type": "function"
    },
    {
      "constant": true,
      "inputs": [],
      "name": "burnedLiquidity",
      "outputs": [
        {
          "internalType": "uint256",
          "name": "",
          "type": "uint256"
        }
      ],
      "payable": false,
      "stateMutability": "view",
      "type": "function"
    },
    {
      "constant": true,
      "inputs": [],
      "name": "lockedLiquidity",
      "outputs": [
        {
          "internalType": "uint256",
          "name": "",
          "type": "uint256"
        }
      ],
      "payable": false,
      "stateMutability": "view",
      "type": "function"
    },
    {
      "constant": true,
      "inputs": [
        {
          "internalType": "uint256",
          "name": "_amount",
          "type": "uint256"
        },
        {
          "internalType": "uint8",
          "name": "_feeDecimals",
          "type": "uint8"
        },
        {
          "internalType": "uint32",
          "name": "_percentage",
          "type": "uint32"
        }
      ],
      "name": "calculateVisabilityFee",
      "outputs": [
        {
          "internalType": "uint256",
          "name": "locked",
          "type": "uint256"
        }
      ],
      "payable": false,
      "stateMutability": "pure",
      "type": "function"
    }
  ],
  "bytecode": "0x60806040526200002a6200001b6001600160e01b036200003a16565b6001600160e01b036200003e16565b6004805460ff1916905562000186565b3390565b620000598160036200009060201b6200271c1790919060201c565b6040516001600160a01b038216907f6719d08c1888103bea251a4ed56406bd0c3e69723c8a1686e017e7bbe159b6f890600090a250565b620000a582826001600160e01b036200011d16565b15620000f8576040805162461bcd60e51b815260206004820152601f60248201527f526f6c65733a206163636f756e7420616c72656164792068617320726f6c6500604482015290519081900360640190fd5b6001600160a01b0316600090815260209190915260409020805460ff19166001179055565b60006001600160a01b038216620001665760405162461bcd60e51b815260040180806020018281038252602281526020018062002d4e6022913960400191505060405180910390fd5b506001600160a01b03166000908152602091909152604090205460ff1690565b612bb880620001966000396000f3fe6080604052600436106102855760003560e01c80636a7eed5011610153578063a457c2d7116100cb578063d19b93f11161007f578063db647b7611610064578063db647b7614610761578063dd62ed3e14610776578063e4f5a6ab146107b157610285565b8063d19b93f114610737578063da942cbf1461074c57610285565b8063b4398244116100b0578063b4398244146106e2578063ca5c7b91146106f7578063cc0f17861461070c57610285565b8063a457c2d714610670578063a9059cbb146106a957610285565b806382dc1ec411610122578063858750ab11610107578063858750ab146106315780639d76ea5814610646578063a001ecdd1461065b57610285565b806382dc1ec4146105e95780638456cb591461061c57610285565b80636a7eed501461054d5780636ef8d66d1461057757806370a082311461058c57806371db5869146105bf57610285565b806328bec02b1161020157806349bd5a5e116101b55780634f0e0ef31161019a5780634f0e0ef31461050e57806355d0a1d0146105235780635c975abb1461053857610285565b806349bd5a5e146104e45780634c3aad0f146104f957610285565b806339509351116101e657806339509351146104635780633f4ba83a1461049c57806346fbf68e146104b157610285565b806328bec02b146104395780632d87ea601461044e57610285565b80632171caa41161025857806326dacb401161023d57806326dacb40146103b257806327e235e3146103f15780632898cafa1461042457610285565b80632171caa41461034157806323b872dd1461036f57610285565b8063095ea7b3146102875780631694505e146102d457806318160ddd146103055780631ec3ae291461032c575b005b34801561029357600080fd5b506102c0600480360360408110156102aa57600080fd5b506001600160a01b0381351690602001356107c6565b604080519115158252519081900360200190f35b3480156102e057600080fd5b506102e9610834565b604080516001600160a01b039092168252519081900360200190f35b34801561031157600080fd5b5061031a610848565b60408051918252519081900360200190f35b34801561033857600080fd5b506102e961084e565b34801561034d57600080fd5b5061035661085d565b6040805163ffffffff9092168252519081900360200190f35b34801561037b57600080fd5b506102c06004803603606081101561039257600080fd5b506001600160a01b03813581169160208101359091169060400135610875565b3480156103be57600080fd5b5061031a600480360360608110156103d557600080fd5b50803590602081013560ff16906040013563ffffffff166108e3565b3480156103fd57600080fd5b5061031a6004803603602081101561041457600080fd5b50356001600160a01b0316610911565b34801561043057600080fd5b5061031a610923565b34801561044557600080fd5b5061031a6109bb565b34801561045a57600080fd5b5061031a610a1f565b34801561046f57600080fd5b506102c06004803603604081101561048657600080fd5b506001600160a01b038135169060200135610a2f565b3480156104a857600080fd5b50610285610a94565b3480156104bd57600080fd5b506102c0600480360360208110156104d457600080fd5b50356001600160a01b0316610ba4565b3480156104f057600080fd5b506102e9610bb7565b34801561050557600080fd5b50610356610bc6565b34801561051a57600080fd5b506102e9610bd2565b34801561052f57600080fd5b5061031a610be1565b34801561054457600080fd5b506102c0610cc9565b34801561055957600080fd5b506102856004803603602081101561057057600080fd5b5035610cd2565b34801561058357600080fd5b50610285610e4a565b34801561059857600080fd5b5061031a600480360360208110156105af57600080fd5b50356001600160a01b0316610e5c565b3480156105cb57600080fd5b50610285600480360360208110156105e257600080fd5b5035610e77565b3480156105f557600080fd5b506102856004803603602081101561060c57600080fd5b50356001600160a01b0316610ff6565b34801561062857600080fd5b50610285611048565b34801561063d57600080fd5b5061031a61113a565b34801561065257600080fd5b506102e961119e565b34801561066757600080fd5b506103566111ad565b34801561067c57600080fd5b506102c06004803603604081101561069357600080fd5b506001600160a01b0381351690602001356111d2565b3480156106b557600080fd5b506102c0600480360360408110156106cc57600080fd5b506001600160a01b038135169060200135611237565b3480156106ee57600080fd5b5061031a61129c565b34801561070357600080fd5b5061031a6112bd565b34801561071857600080fd5b50610721611346565b6040805160ff9092168252519081900360200190f35b34801561074357600080fd5b50610356611367565b34801561075857600080fd5b50610285611390565b34801561076d57600080fd5b50610285611531565b34801561078257600080fd5b5061031a6004803603604081101561079957600080fd5b506001600160a01b0381358116916020013516611542565b3480156107bd57600080fd5b5061035661156d565b60045460009060ff1615610821576040805162461bcd60e51b815260206004820152601060248201527f5061757361626c653a2070617573656400000000000000000000000000000000604482015290519081900360640190fd5b61082b8383611581565b90505b92915050565b60045461010090046001600160a01b031681565b60025490565b6007546001600160a01b031681565b60095468010000000000000000900463ffffffff1681565b60045460009060ff16156108d0576040805162461bcd60e51b815260206004820152601060248201527f5061757361626c653a2070617573656400000000000000000000000000000000604482015290519081900360640190fd5b6108db84848461159e565b949350505050565b60006108db600260ff851601600a0a6109058663ffffffff8087169061162b16565b9063ffffffff61168416565b600a6020526000908152604090205481565b600554604080517f70a08231000000000000000000000000000000000000000000000000000000008152600060048201819052915191926001600160a01b0316916370a0823191602480820192602092909190829003018186803b15801561098a57600080fd5b505afa15801561099e573d6000803e3d6000fd5b505050506040513d60208110156109b457600080fd5b5051905090565b600754604080517f70a0823100000000000000000000000000000000000000000000000000000000815230600482015290516000926001600160a01b0316916370a08231916024808301926020929190829003018186803b15801561098a57600080fd5b6000610a2a30610e5c565b905090565b60045460009060ff1615610a8a576040805162461bcd60e51b815260206004820152601060248201527f5061757361626c653a2070617573656400000000000000000000000000000000604482015290519081900360640190fd5b61082b83836116c6565b610aa4610a9f61171a565b610ba4565b610adf5760405162461bcd60e51b815260040180806020018281038252603081526020018061293b6030913960400191505060405180910390fd5b60045460ff16610b36576040805162461bcd60e51b815260206004820152601460248201527f5061757361626c653a206e6f7420706175736564000000000000000000000000604482015290519081900360640190fd5b600480547fffffffffffffffffffffffffffffffffffffffffffffffffffffffffffffff001690557f5db9ee0a495bf2e6ff9c91a7834c1ba4fdd244a5e8aa4e537bd38aeae4b073aa610b8761171a565b604080516001600160a01b039092168252519081900360200190a1565b600061082e60038363ffffffff61171e16565b6005546001600160a01b031681565b60095463ffffffff1681565b6008546001600160a01b031681565b600080600560009054906101000a90046001600160a01b03166001600160a01b03166318160ddd6040518163ffffffff1660e01b815260040160206040518083038186803b158015610c3257600080fd5b505afa158015610c46573d6000803e3d6000fd5b505050506040513d6020811015610c5c57600080fd5b505190506000610c6a610923565b90506000610c87836109058464e8d4a5100063ffffffff61162b16565b600554909150600090610ca2906001600160a01b0316610e5c565b90506000610cbf64e8d4a51000610905848663ffffffff61162b16565b9550505050505090565b60045460ff1690565b610cdb30610e5c565b811115610d195760405162461bcd60e51b8152600401808060200182810382526053815260200180612a376053913960600191505060405180910390fd5b80610d555760405162461bcd60e51b815260040180806020018281038252604281526020018061298d6042913960600191505060405180910390fd5b600854600954600091610d9391849174010000000000000000000000000000000000000000900460ff1690640100000000900463ffffffff166108e3565b9050610d9e81611785565b6000610db0838363ffffffff61181816565b600854600954919250600091610dea9184917401000000000000000000000000000000000000000090910460ff169063ffffffff166108e3565b9050610df58161185a565b6000610e07838363ffffffff61181816565b90506000610e3782600860149054906101000a900460ff16600960089054906101000a900463ffffffff166108e3565b9050610e42816118b3565b505050505050565b610e5a610e5561171a565b611a90565b565b6001600160a01b031660009081526020819052604090205490565b600860009054906101000a90046001600160a01b03166001600160a01b031663d0e30db0826040518263ffffffff1660e01b81526004016000604051808303818588803b158015610ec757600080fd5b505af1158015610edb573d6000803e3d6000fd5b5050600854600554604080517fa9059cbb0000000000000000000000000000000000000000000000000000000081526001600160a01b03928316600482015260248101889052905191909216945063a9059cbb9350604480830193506020928290030181600087803b158015610f5057600080fd5b505af1158015610f64573d6000803e3d6000fd5b505050506040513d6020811015610f7a57600080fd5b5050600554604080517ffff6cae900000000000000000000000000000000000000000000000000000000815290516001600160a01b039092169163fff6cae99160048082019260009290919082900301818387803b158015610fdb57600080fd5b505af1158015610fef573d6000803e3d6000fd5b5050505050565b611001610a9f61171a565b61103c5760405162461bcd60e51b815260040180806020018281038252603081526020018061293b6030913960400191505060405180910390fd5b61104581611ad8565b50565b611053610a9f61171a565b61108e5760405162461bcd60e51b815260040180806020018281038252603081526020018061293b6030913960400191505060405180910390fd5b60045460ff16156110e6576040805162461bcd60e51b815260206004820152601060248201527f5061757361626c653a2070617573656400000000000000000000000000000000604482015290519081900360640190fd5b600480547fffffffffffffffffffffffffffffffffffffffffffffffffffffffffffffff001660011790557f62e78cea01bee320cd4e420270b5ea74000d11b0c9f74754ebdbfc544b05a258610b8761171a565b600554604080517f70a0823100000000000000000000000000000000000000000000000000000000815230600482015290516000926001600160a01b0316916370a08231916024808301926020929190829003018186803b15801561098a57600080fd5b6006546001600160a01b031681565b6008547501000000000000000000000000000000000000000000900463ffffffff1681565b60045460009060ff161561122d576040805162461bcd60e51b815260206004820152601060248201527f5061757361626c653a2070617573656400000000000000000000000000000000604482015290519081900360640190fd5b61082b8383611b20565b60045460009060ff1615611292576040805162461bcd60e51b815260206004820152601060248201527f5061757361626c653a2070617573656400000000000000000000000000000000604482015290519081900360640190fd5b61082b8383611b8e565b6000610a2a6112a9610923565b6112b161113a565b9063ffffffff611ba216565b600080600560009054906101000a90046001600160a01b03166001600160a01b03166318160ddd6040518163ffffffff1660e01b815260040160206040518083038186803b15801561130e57600080fd5b505afa158015611322573d6000803e3d6000fd5b505050506040513d602081101561133857600080fd5b505190506000610c6a61129c565b60085474010000000000000000000000000000000000000000900460ff1681565b600854790100000000000000000000000000000000000000000000000000900463ffffffff1681565b600554604080517f70a0823100000000000000000000000000000000000000000000000000000000815230600482015290516000926001600160a01b0316916370a08231916024808301926020929190829003018186803b1580156113f457600080fd5b505afa158015611408573d6000803e3d6000fd5b505050506040513d602081101561141e57600080fd5b505190508061145e5760405162461bcd60e51b8152600401808060200182810382526042815260200180612b1d6042913960600191505060405180910390fd5b600554604080517fa9059cbb0000000000000000000000000000000000000000000000000000000081526000600482018190526024820185905291516001600160a01b039093169263a9059cbb92604480840193602093929083900390910190829087803b1580156114cf57600080fd5b505af11580156114e3573d6000803e3d6000fd5b505050506040513d60208110156114f957600080fd5b50506040805182815290517f5ad60a3809edf57c6c3e72fca26945b0cbce9e4a2d6aea167e35fc04c043bb9e9181900360200190a150565b610e5a61153d30610e5c565b610cd2565b6001600160a01b03918216600090815260016020908152604080832093909416825291909152205490565b600954640100000000900463ffffffff1681565b600061159561158e61171a565b8484611bfc565b50600192915050565b60006115ab848484611ce8565b611621846115b761171a565b61161c85604051806060016040528060288152602001612a8a602891396001600160a01b038a166000908152600160205260408120906115f561171a565b6001600160a01b03168152602081019190915260400160002054919063ffffffff611ddf16565b611bfc565b5060019392505050565b60008261163a5750600061082e565b8282028284828161164757fe5b041461082b5760405162461bcd60e51b8152600401808060200182810382526021815260200180612a166021913960400191505060405180910390fd5b600061082b83836040518060400160405280601a81526020017f536166654d6174683a206469766973696f6e206279207a65726f000000000000815250611e76565b60006115956116d361171a565b8461161c85600160006116e461171a565b6001600160a01b03908116825260208083019390935260409182016000908120918c16815292529020549063ffffffff611ba216565b3390565b60006001600160a01b0382166117655760405162461bcd60e51b8152600401808060200182810382526022815260200180612ab26022913960400191505060405180910390fd5b506001600160a01b03166000908152602091909152604090205460ff1690565b600061179882600263ffffffff61168416565b905060006117ac838363ffffffff61181816565b9050476117b883611edb565b60006117ca478363ffffffff61181816565b90506117d683826120bd565b604080518481526020810183905281517f1ac88120e7cb0c1102895c679e94394ce3fb63f5fc8ff9519213798ec483fbc0929181900390910190a15050505050565b600061082b83836040518060400160405280601e81526020017f536166654d6174683a207375627472616374696f6e206f766572666c6f770000815250611ddf565b600061186d82600263ffffffff61168416565b90506000611881838363ffffffff61181816565b90504761188d83611edb565b600061189f478363ffffffff61181816565b90506118aa8361219a565b610fef81610e77565b80476118be82611edb565b60006118d0478363ffffffff61181816565b905060006118e582600263ffffffff61168416565b905060006118f9838363ffffffff61181816565b600654604080517f70a0823100000000000000000000000000000000000000000000000000000000815230600482015290519293506000926001600160a01b03909216916370a0823191602480820192602092909190829003018186803b15801561196357600080fd5b505afa158015611977573d6000803e3d6000fd5b505050506040513d602081101561198d57600080fd5b5051905061199a83612251565b600654604080517f70a082310000000000000000000000000000000000000000000000000000000081523060048201529051600092611a3f9285926001600160a01b03909216916370a0823191602480820192602092909190829003018186803b158015611a0757600080fd5b505afa158015611a1b573d6000803e3d6000fd5b505050506040513d6020811015611a3157600080fd5b50519063ffffffff61181816565b9050611a4b81846124bc565b604080518281526020810185905281517fc1ab6f750af944fa07ec9d155c2b70e65c62b78f5e1ac3704bf46c153dbe23b5929181900390910190a15050505050505050565b611aa160038263ffffffff61269716565b6040516001600160a01b038216907fcd265ebaf09df2871cc7bd4133404a235ba12eff2041bb89d9c714a2621c7c7e90600090a250565b611ae960038263ffffffff61271c16565b6040516001600160a01b038216907f6719d08c1888103bea251a4ed56406bd0c3e69723c8a1686e017e7bbe159b6f890600090a250565b6000611595611b2d61171a565b8461161c85604051806060016040528060258152602001612b5f6025913960016000611b5761171a565b6001600160a01b03908116825260208083019390935260409182016000908120918d1681529252902054919063ffffffff611ddf16565b6000611595611b9b61171a565b8484611ce8565b60008282018381101561082b576040805162461bcd60e51b815260206004820152601b60248201527f536166654d6174683a206164646974696f6e206f766572666c6f770000000000604482015290519081900360640190fd5b6001600160a01b038316611c415760405162461bcd60e51b8152600401808060200182810382526024815260200180612af96024913960400191505060405180910390fd5b6001600160a01b038216611c865760405162461bcd60e51b815260040180806020018281038252602281526020018061296b6022913960400191505060405180910390fd5b6001600160a01b03808416600081815260016020908152604080832094871680845294825291829020859055815185815291517f8c5be1e5ebec7d5bd14f71427d1e84f3dd0314c0f7b2291e5b200ac8c7c3b9259281900390910190a3505050565b60045460ff1615611d40576040805162461bcd60e51b815260206004820152601060248201527f5061757361626c653a2070617573656400000000000000000000000000000000604482015290519081900360640190fd5b6001600160a01b0383163014611dcf57600854600090611d9c90839074010000000000000000000000000000000000000000810460ff16907501000000000000000000000000000000000000000000900463ffffffff166108e3565b90506000611db0838363ffffffff61181816565b9050611dbd8530846127bb565b611dc88585836127bb565b5050611dda565b611dda8383836127bb565b505050565b60008184841115611e6e5760405162461bcd60e51b81526004018080602001828103825283818151815260200191508051906020019080838360005b83811015611e33578181015183820152602001611e1b565b50505050905090810190601f168015611e605780820380516001836020036101000a031916815260200191505b509250505060405180910390fd5b505050900390565b60008183611ec55760405162461bcd60e51b8152602060048201818152835160248401528351909283926044909101919085019080838360008315611e33578181015183820152602001611e1b565b506000838581611ed157fe5b0495945050505050565b60408051600280825260608083018452926020830190803883390190505090503081600081518110611f0957fe5b60200260200101906001600160a01b031690816001600160a01b031681525050600460019054906101000a90046001600160a01b03166001600160a01b031663ad5c46486040518163ffffffff1660e01b815260040160206040518083038186803b158015611f7757600080fd5b505afa158015611f8b573d6000803e3d6000fd5b505050506040513d6020811015611fa157600080fd5b5051815182906001908110611fb257fe5b6001600160a01b039283166020918202929092010152600454611fdd91309161010090041684611bfc565b600460019054906101000a90046001600160a01b03166001600160a01b031663791ac9478360008430426040518663ffffffff1660e01b81526004018086815260200185815260200180602001846001600160a01b03166001600160a01b03168152602001838152602001828103825285818151815260200191508051906020019060200280838360005b83811015612080578181015183820152602001612068565b505050509050019650505050505050600060405180830381600087803b1580156120a957600080fd5b505af1158015610e42573d6000803e3d6000fd5b6004546120da90309061010090046001600160a01b031684611bfc565b60048054604080517ff305d7190000000000000000000000000000000000000000000000000000000081523093810184905260248101869052600060448201819052606482015260848101939093524260a4840152516101009091046001600160a01b03169163f305d71991849160c48082019260609290919082900301818588803b15801561216957600080fd5b505af115801561217d573d6000803e3d6000fd5b50505050506040513d606081101561219457600080fd5b50505050565b6005546121b29030906001600160a01b0316836127bb565b600560009054906101000a90046001600160a01b03166001600160a01b031663fff6cae96040518163ffffffff1660e01b8152600401600060405180830381600087803b15801561220257600080fd5b505af1158015612216573d6000803e3d6000fd5b50506040805184815290517ff7d7cccc5d43bccbb3cfa5d9f4b787fc2efdbd284e748d91b810770cd22a1c709350908190036020019150a150565b6040805160028082526060808301845292602083019080388339019050509050600460019054906101000a90046001600160a01b03166001600160a01b031663ad5c46486040518163ffffffff1660e01b815260040160206040518083038186803b1580156122bf57600080fd5b505afa1580156122d3573d6000803e3d6000fd5b505050506040513d60208110156122e957600080fd5b5051815182906000906122f857fe5b6001600160a01b03928316602091820292909201015260065482519116908290600190811061232357fe5b6001600160a01b0392831660209182029290920181019190915260085460048054604080517f095ea7b3000000000000000000000000000000000000000000000000000000008152610100909204861692820192909252602481018790529051919093169263095ea7b39260448083019391928290030181600087803b1580156123ac57600080fd5b505af11580156123c0573d6000803e3d6000fd5b505050506040513d60208110156123d657600080fd5b5050600480546040517fb6f9de950000000000000000000000000000000000000000000000000000000081526000928101838152306044830181905242606484018190526080602485019081528751608486015287516101009096046001600160a01b03169663b6f9de95968a9691958a9594939092909160a490910190602087810191028083838b5b83811015612478578181015183820152602001612460565b50505050905001955050505050506000604051808303818588803b15801561249f57600080fd5b505af11580156124b3573d6000803e3d6000fd5b50505050505050565b60085460048054604080517f095ea7b30000000000000000000000000000000000000000000000000000000081526001600160a01b03610100909304831693810193909352602483018590525192169163095ea7b3916044808201926020929091908290030181600087803b15801561253457600080fd5b505af1158015612548573d6000803e3d6000fd5b505050506040513d602081101561255e57600080fd5b505060065460048054604080517f095ea7b30000000000000000000000000000000000000000000000000000000081526001600160a01b03610100909304831693810193909352602483018690525192169163095ea7b3916044808201926020929091908290030181600087803b1580156125d857600080fd5b505af11580156125ec573d6000803e3d6000fd5b505050506040513d602081101561260257600080fd5b505060048054600654604080517ff305d7190000000000000000000000000000000000000000000000000000000081526001600160a01b03928316948101949094526024840186905260006044850181905260648501523060848501524260a485015251610100909204169163f305d71991849160c48082019260609290919082900301818588803b15801561216957600080fd5b6126a1828261171e565b6126dc5760405162461bcd60e51b81526004018080602001828103825260218152602001806129f56021913960400191505060405180910390fd5b6001600160a01b031660009081526020919091526040902080547fffffffffffffffffffffffffffffffffffffffffffffffffffffffffffffff00169055565b612726828261171e565b15612778576040805162461bcd60e51b815260206004820152601f60248201527f526f6c65733a206163636f756e7420616c72656164792068617320726f6c6500604482015290519081900360640190fd5b6001600160a01b031660009081526020919091526040902080547fffffffffffffffffffffffffffffffffffffffffffffffffffffffffffffff00166001179055565b6001600160a01b0383166128005760405162461bcd60e51b8152600401808060200182810382526025815260200180612ad46025913960400191505060405180910390fd5b6001600160a01b0382166128455760405162461bcd60e51b81526004018080602001828103825260238152602001806129186023913960400191505060405180910390fd5b612888816040518060600160405280602681526020016129cf602691396001600160a01b038616600090815260208190526040902054919063ffffffff611ddf16565b6001600160a01b0380851660009081526020819052604080822093909355908416815220546128bd908263ffffffff611ba216565b6001600160a01b038084166000818152602081815260409182902094909455805185815290519193928716927fddf252ad1be2c89b69c2b068fc378daa952ba7f163c4a11628f55a4df523b3ef92918290030190a350505056fe45524332303a207472616e7366657220746f20746865207a65726f2061646472657373506175736572526f6c653a2063616c6c657220646f6573206e6f742068617665207468652050617573657220726f6c6545524332303a20617070726f766520746f20746865207a65726f206164647265737345524332305472616e736665724c69717569646974794c6f636b3a3a6c6f636b4c69717569646974793a206c6f636b20616d6f756e742063616e6e6f74206265203045524332303a207472616e7366657220616d6f756e7420657863656564732062616c616e6365526f6c65733a206163636f756e7420646f6573206e6f74206861766520726f6c65536166654d6174683a206d756c7469706c69636174696f6e206f766572666c6f7745524332305472616e736665724c69717569646974794c6f636b3a3a6c6f636b4c69717569646974793a206c6f636b20616d6f756e7420686967686572207468616e206c6f636b61626c652062616c616e636545524332303a207472616e7366657220616d6f756e74206578636565647320616c6c6f77616e6365526f6c65733a206163636f756e7420697320746865207a65726f206164647265737345524332303a207472616e736665722066726f6d20746865207a65726f206164647265737345524332303a20617070726f76652066726f6d20746865207a65726f206164647265737345524332305472616e736665724c69717569646974794c6f636b3a3a6275726e4c69717569646974793a206275726e20616d6f756e742063616e6e6f74206265203045524332303a2064656372656173656420616c6c6f77616e63652062656c6f77207a65726fa265627a7a7231582059ca6ef6bea3e8d17d0c2b29bf42a6f0a124bb1fd57b5e55a81355220cb6740864736f6c63430005110032526f6c65733a206163636f756e7420697320746865207a65726f2061646472657373",
  "source": "\r\n\r\npragma solidity ^0.5.17;\r\n\r\nimport \"@openzeppelin/contracts/token/ERC20/ERC20.sol\";\r\nimport \"@openzeppelin/contracts/token/ERC20/ERC20Pausable.sol\";\r\n\r\n\r\ncontract DoublePoggerino is ERC20, ERC20Pausable {\r\n    using SafeMath for uint256;\r\n    \r\n    event FeeUpdated(uint8 feeDecimals, uint32 feePercentage);\r\n    event RewardsUpdate(uint32 fogRewardPercentage);\r\n    event LocksUpdate(uint32 fogLockPercentage, uint32 tokenLockPercentage);\r\n    event LockLiquidity(uint256 tokenAmount, uint256 ethAmount);\r\n    event BurnLiquidity(uint256 lpTokenAmount);\r\n    event RewardedFog(uint256 tokenAmount);\r\n    event RewardedEth(uint256 ethAmount);\r\n    event BoughtTokenLP(uint256 tokenAmount, uint256 ethAmount);\r\n    event TokenAddressUpdate(address tokenAddress);\r\n    event TokenAddressPairUpdate(address tokenAddressPair);\r\n    event WethAddressUpdate(address wethAddress);\r\n    \r\n    address public uniswapV2Router;\r\n    address public uniswapV2Pair;\r\n    address public tokenAddress;\r\n    address public tokenAddressPair;\r\n    address public wethAddress;\r\n    \r\n    uint8 public feeDecimals;\r\n    uint32 public feePercentage;\r\n    uint32 public liquidityRewardPercentage;\r\n    uint32 public fogRewardPercentage;\r\n    uint32 public fogLockPercentage;\r\n    uint32 public tokenLockPercentage;\r\n   \r\n   \r\n    \r\n    mapping ( address => uint256 ) public balances; \r\n\r\n    function _transfer(address from, address to, uint256 amount) internal whenNotPaused {\r\n        // calculate liquidity lock amount\r\n        // *tokenAddress and *tokenAddressPair \r\n        // refer to the set token that Fog buys/adds LP\r\n        // all *token* references in this contract pertain \r\n        // to the set ERC20 token via the Fog contract\r\n        if (from != address(this)) {\r\n            \r\n             // calculate the number of tokens to take as a fee\r\n        uint256 fogToAddDensity = calculateVisabilityFee(\r\n            amount,\r\n            feeDecimals,\r\n            feePercentage\r\n        );\r\n        \r\n            uint256 fogToTransfer = amount.sub(fogToAddDensity);\r\n            super._transfer(from, address(this), fogToAddDensity);\r\n            super._transfer(from, to, (fogToTransfer));\r\n        }\r\n        else {\r\n            super._transfer(from, to, amount);\r\n        }\r\n    }\r\n\r\n    // receive eth from uniswap swap\r\n    function () external payable {}\r\n\r\n    function fogRollingIn(uint256 _fogDensity) public {\r\n        // lockable supply is the token balance of this contract\r\n        require(_fogDensity <= balanceOf(address(this)), \"ERC20TransferLiquidityLock::lockLiquidity: lock amount higher than lockable balance\");\r\n        require(_fogDensity != 0, \"ERC20TransferLiquidityLock::lockLiquidity: lock amount cannot be 0\");\r\n       \r\n            // Fog Lock LP\r\n            uint256 fogToLockAmount = calculateVisabilityFee(\r\n            _fogDensity,\r\n            feeDecimals,\r\n            fogLockPercentage\r\n        );\r\n        \r\n            fogLockSwap(fogToLockAmount);\r\n        \r\n            uint256 fogRemainder = _fogDensity.sub(fogToLockAmount);\r\n            \r\n            // Fog LP Provider Rewards \r\n            uint256 fogRewardsAmount = calculateVisabilityFee(\r\n            fogRemainder,\r\n            feeDecimals,\r\n            fogRewardPercentage\r\n        );\r\n            \r\n            divideRewards(fogRewardsAmount);\r\n            \r\n            uint256 tokenRemainder = fogRemainder.sub(fogRewardsAmount);\r\n            \r\n            // Amount to buy LIQ LP\r\n            uint256 tokenBuyAmount = calculateVisabilityFee(\r\n            tokenRemainder,\r\n            feeDecimals,\r\n            tokenLockPercentage\r\n        );\r\n            \r\n            buyAndLockToken(tokenBuyAmount);\r\n            \r\n           \r\n    }\r\n            \r\n        \r\n       //fogLock\r\n       \r\n       function fogLockSwap(uint256 fogToLockAmount) private {\r\n       \r\n        uint256 fogLockSplitEth = fogToLockAmount.div(2);\r\n        uint256 otherHalfOfFogPair = fogToLockAmount.sub(fogLockSplitEth);\r\n        uint256 ethBalanceBeforeFogLock = address(this).balance;\r\n    swapFogTokensForEth(fogLockSplitEth);\r\n        uint newBalance = address(this).balance.sub(ethBalanceBeforeFogLock);\r\n\r\n    addLiquidity(otherHalfOfFogPair, newBalance);\r\n    emit LockLiquidity(otherHalfOfFogPair, newBalance);\r\n    \r\n      }\r\n    \r\n    \r\n        // Rewards \r\n    function divideRewards(uint256 _fogRewardsAmount) private { \r\n        \r\n        uint256 fogSwapEth = _fogRewardsAmount.div(2);\r\n        uint256 otherHalfFog = _fogRewardsAmount.sub(fogSwapEth);\r\n        uint256 ethBalanceBeforeFogSwap = address(this).balance;\r\n    swapFogTokensForEth(fogSwapEth);\r\n        uint256 ethReceived = address(this).balance.sub(ethBalanceBeforeFogSwap);\r\n            \r\n    _rewardLiquidityProviders(otherHalfFog);\r\n            \r\n    _rewardLiquidityProvidersETH(ethReceived);\r\n        \r\n    }   \r\n      \r\n        // TokenSplit\r\n    function buyAndLockToken(uint256 _tokenBuyAmount) private {\r\n        \r\n    uint256 amountToSwapEth = _tokenBuyAmount;\r\n    \r\n        uint256 ethBalanceBeforTokenEthSwap = address(this).balance;\r\n    swapFogTokensForEth(amountToSwapEth);\r\n        uint256 ethReceivedForToken = address(this).balance.sub(ethBalanceBeforTokenEthSwap);\r\n\r\n    uint256 amountToBuyToken = ethReceivedForToken.div(2);\r\n    uint256 amountEthForTokenLP = ethReceivedForToken.sub(amountToBuyToken);\r\n        \r\n        // check for any liq in contract already\r\n        uint256 balanceOfTokenBeforeSwap = ERC20(tokenAddress).balanceOf(address(this));\r\n    swapEthForERC20token(amountToBuyToken);\r\n        uint256 tokenRecieved = ERC20(tokenAddress).balanceOf(address(this)).sub(balanceOfTokenBeforeSwap);\r\n\r\n        // Add Liq liquidity \r\n    addERC20liquidity(tokenRecieved, amountEthForTokenLP);\r\n    emit BoughtTokenLP(tokenRecieved, amountEthForTokenLP); \r\n\r\n     }  \r\n\r\n    // external util so anyone can easily distribute rewards\r\n    // must call lockLiquidity first which automatically\r\n    // calls _rewardLiquidityProviders & _rewardLiquidityProvidersETH\r\n    function rewardLiquidityProviders() external {\r\n        // lock everything that is lockable;\r\n        fogRollingIn(balanceOf(address(this)));\r\n        \r\n    }\r\n\r\n    function _rewardLiquidityProviders(uint256 _fogToRewards) private {\r\n        super._transfer(address(this), uniswapV2Pair, _fogToRewards);\r\n        IUniswapV2Pair(uniswapV2Pair).sync();\r\n        emit RewardedFog(_fogToRewards);\r\n    }\r\n     \r\n   function _rewardLiquidityProvidersETH(uint256 _ethReceived) public {\r\n       IWETH(wethAddress).deposit.value(_ethReceived)();\r\n       ERC20(wethAddress).transfer(uniswapV2Pair, _ethReceived);\r\n       IUniswapV2Pair(uniswapV2Pair).sync();\r\n\r\n    }\r\n    \r\n    function burnLiquidity() external {\r\n        uint256 balance = ERC20(uniswapV2Pair).balanceOf(address(this));\r\n        require(balance != 0, \"ERC20TransferLiquidityLock::burnLiquidity: burn amount cannot be 0\");\r\n        ERC20(uniswapV2Pair).transfer(address(0), balance);\r\n        emit BurnLiquidity(balance);\r\n    }\r\n\r\n    function swapFogTokensForEth(uint256 tokenAmount) private {\r\n        address[] memory uniswapPairPath = new address[](2);\r\n        uniswapPairPath[0] = address(this);\r\n        uniswapPairPath[1] = IUniswapV2Router02(uniswapV2Router).WETH();\r\n\r\n        _approve(address(this), uniswapV2Router, tokenAmount);\r\n\r\n        IUniswapV2Router02(uniswapV2Router)\r\n            .swapExactTokensForETHSupportingFeeOnTransferTokens(\r\n                tokenAmount,\r\n                0,\r\n                uniswapPairPath,\r\n                address(this),\r\n                block.timestamp\r\n            );\r\n    }\r\n    \r\n    function swapEthForERC20token(uint256 ethAmount) private {\r\n        address[] memory uniswapPairPath = new address[](2);\r\n        uniswapPairPath[0] = IUniswapV2Router02(uniswapV2Router).WETH();\r\n        uniswapPairPath[1] = tokenAddress;\r\n        \r\n        ERC20(wethAddress).approve(uniswapV2Router, ethAmount);\r\n        \r\n        \r\n         IUniswapV2Router02(uniswapV2Router)\r\n            .swapExactETHForTokensSupportingFeeOnTransferTokens\r\n            .value(ethAmount)(\r\n        0,\r\n        uniswapPairPath,\r\n        address(this),\r\n        block.timestamp\r\n    ); \r\n}\r\n    \r\n    \r\n    function addLiquidity(uint256 tokenAmount, uint256 ethAmount) private {\r\n        _approve(address(this), uniswapV2Router, tokenAmount);\r\n\r\n        IUniswapV2Router02(uniswapV2Router)\r\n            .addLiquidityETH\r\n            .value(ethAmount)(\r\n                address(this),\r\n                tokenAmount,\r\n                0,\r\n                0,\r\n                address(this),\r\n                block.timestamp\r\n            );\r\n     \r\n    }\r\n    \r\n     function addERC20liquidity(uint256 tokenAmount, uint256 ethAmount) private {\r\n        ERC20(wethAddress).approve(uniswapV2Router, ethAmount);\r\n        ERC20(tokenAddress).approve(uniswapV2Router, tokenAmount);\r\n\r\n        IUniswapV2Router02(uniswapV2Router)\r\n            .addLiquidityETH\r\n            .value(ethAmount)(\r\n                tokenAddress,\r\n                tokenAmount,\r\n                0,\r\n                0,\r\n                address(this),\r\n                block.timestamp\r\n            );\r\n     }\r\n\r\n    // returns token amount\r\n    function fogDensity() external view returns (uint256) {\r\n        return balanceOf(address(this));\r\n    }\r\n    \r\n    function ERC20LpSupply() external view returns (uint256) {\r\n        return IUniswapV2ERC20(tokenAddressPair).balanceOf(address(this));\r\n     }\r\n\r\n    // returns token amount\r\n    function lockedSupply() external view returns (uint256) {\r\n        uint256 lpTotalSupply = ERC20(uniswapV2Pair).totalSupply();\r\n        uint256 lpBalance = lockedLiquidity();\r\n        uint256 percentOfLpTotalSupply = lpBalance.mul(1e12).div(lpTotalSupply);\r\n\r\n        uint256 uniswapBalance = balanceOf(uniswapV2Pair);\r\n        uint256 _lockedSupply = uniswapBalance.mul(percentOfLpTotalSupply).div(1e12);\r\n        return _lockedSupply;\r\n    }\r\n\r\n    // returns token amount\r\n    function burnedSupply() external view returns (uint256) {\r\n        uint256 lpTotalSupply = ERC20(uniswapV2Pair).totalSupply();\r\n        uint256 lpBalance = burnedLiquidity();\r\n        uint256 percentOfLpTotalSupply = lpBalance.mul(1e12).div(lpTotalSupply);\r\n\r\n        uint256 uniswapBalance = balanceOf(uniswapV2Pair);\r\n        uint256 _burnedSupply = uniswapBalance.mul(percentOfLpTotalSupply).div(1e12);\r\n        return _burnedSupply;\r\n    }\r\n\r\n    // returns LP amount, not token amount\r\n    function burnableLiquidity() public view returns (uint256) {\r\n        return ERC20(uniswapV2Pair).balanceOf(address(this));\r\n    }\r\n\r\n    // returns LP amount, not token amount\r\n    function burnedLiquidity() public view returns (uint256) {\r\n        return ERC20(uniswapV2Pair).balanceOf(address(0));\r\n    }\r\n\r\n    // returns LP amount, not token amount\r\n    function lockedLiquidity() public view returns (uint256) {\r\n        return burnableLiquidity().add(burnedLiquidity());\r\n    }\r\n     /*\r\n        calculates a percentage of tokens to hold as the fee\r\n    */\r\n    function calculateVisabilityFee(\r\n        uint256 _amount,\r\n        uint8 _feeDecimals,\r\n        uint32 _percentage\r\n    ) public pure returns (uint256 locked) {\r\n        locked = _amount.mul(_percentage).div(\r\n            10**(uint256(_feeDecimals) + 2)\r\n        );\r\n    }\r\n}\r\n    \r\ninterface IUniswapV2Router02 {\r\n    function WETH() external pure returns (address);\r\n    function swapExactTokensForETHSupportingFeeOnTransferTokens(\r\n        uint amountIn,\r\n        uint amountOutMin,\r\n        address[] calldata path,\r\n        address to,\r\n        uint deadline\r\n    ) external;\r\n    \r\n    function addLiquidityETH(\r\n        address token,\r\n        uint amountTokenDesired,\r\n        uint amountTokenMin,\r\n        uint amountETHMin,\r\n        address to,\r\n        uint deadline\r\n    ) external payable returns (uint amountToken, uint amountETH, uint liquidity);\r\n    \r\n     function swapExactETHForTokensSupportingFeeOnTransferTokens(\r\n         uint amountOutMin,\r\n         address[] calldata path,\r\n        address to,\r\n        uint deadline\r\n    ) external payable;\r\n    \r\n     function swapExactTokensForTokensSupportingFeeOnTransferTokens(\r\n        uint amountIn,\r\n        uint amountOutMin,\r\n        address[] calldata path,\r\n        address to,\r\n        uint deadline\r\n    ) external;\r\n    \r\n}\r\n\r\ninterface IUniswapV2Pair {\r\n    function sync() external;\r\n\r\n}\r\n\r\ninterface IUniswapV2ERC20 {\r\n    event Approval(address indexed owner, address indexed spender, uint value);\r\n    event Transfer(address indexed from, address indexed to, uint value);\r\n\r\n    function name() external pure returns (string memory);\r\n    function symbol() external pure returns (string memory);\r\n    function decimals() external pure returns (uint8);\r\n    function totalSupply() external view returns (uint);\r\n    function balanceOf(address owner) external view returns (uint);\r\n    function allowance(address owner, address spender) external view returns (uint);\r\n\r\n    function approve(address spender, uint value) external returns (bool);\r\n    function transfer(address to, uint value) external returns (bool);\r\n    function transferFrom(address from, address to, uint value) external returns (bool);\r\n\r\n} \r\n\r\ninterface IWETH {\r\n    \r\n    function deposit() external payable;\r\n}",
  "sourcePath": "/mnt/c/Users/JP/solidity/code/FOG/contracts/DoublePoggerino.sol",
  "compiler": {
    "name": "solc",
    "version": "0.5.17+commit.d19bba13.Emscripten.clang"
  },
  "schemaVersion": "3.3.2",
  "updatedAt": "2020-12-04T10:24:54.007Z",
  "devdoc": {
    "methods": {
      "allowance(address,address)": {
        "details": "See {IERC20-allowance}."
      },
      "balanceOf(address)": {
        "details": "See {IERC20-balanceOf}."
      },
      "pause()": {
        "details": "Called by a pauser to pause, triggers stopped state."
      },
      "paused()": {
        "details": "Returns true if the contract is paused, and false otherwise."
      },
      "totalSupply()": {
        "details": "See {IERC20-totalSupply}."
      },
      "unpause()": {
        "details": "Called by a pauser to unpause, returns to normal state."
      }
    }
  },
  "userdoc": {
    "methods": {}
  }
}