{
  "contractName": "FOG",
  "abi": [
    {
      "inputs": [],
      "payable": false,
      "stateMutability": "nonpayable",
      "type": "constructor"
    },
    {
      "anonymous": false,
      "inputs": [
        {
          "indexed": true,
          "internalType": "address",
          "name": "owner",
          "type": "address"
        },
        {
          "indexed": true,
          "internalType": "address",
          "name": "spender",
          "type": "address"
        },
        {
          "indexed": false,
          "internalType": "uint256",
          "name": "value",
          "type": "uint256"
        }
      ],
      "name": "Approval",
      "type": "event"
    },
    {
      "anonymous": false,
      "inputs": [
        {
          "indexed": false,
          "internalType": "uint256",
          "name": "tokenAmount",
          "type": "uint256"
        },
        {
          "indexed": false,
          "internalType": "uint256",
          "name": "ethAmount",
          "type": "uint256"
        }
      ],
      "name": "BoughtTokenLP",
      "type": "event"
    },
    {
      "anonymous": false,
      "inputs": [
        {
          "indexed": false,
          "internalType": "uint256",
          "name": "lpTokenAmount",
          "type": "uint256"
        }
      ],
      "name": "BurnLiquidity",
      "type": "event"
    },
    {
      "anonymous": false,
      "inputs": [
        {
          "indexed": true,
          "internalType": "address",
          "name": "delegator",
          "type": "address"
        },
        {
          "indexed": true,
          "internalType": "address",
          "name": "fromDelegate",
          "type": "address"
        },
        {
          "indexed": true,
          "internalType": "address",
          "name": "toDelegate",
          "type": "address"
        }
      ],
      "name": "DelegateChanged",
      "type": "event"
    },
    {
      "anonymous": false,
      "inputs": [
        {
          "indexed": true,
          "internalType": "address",
          "name": "delegate",
          "type": "address"
        },
        {
          "indexed": false,
          "internalType": "uint256",
          "name": "previousBalance",
          "type": "uint256"
        },
        {
          "indexed": false,
          "internalType": "uint256",
          "name": "newBalance",
          "type": "uint256"
        }
      ],
      "name": "DelegateVotesChanged",
      "type": "event"
    },
    {
      "anonymous": false,
      "inputs": [
        {
          "indexed": false,
          "internalType": "uint8",
          "name": "feeDecimals",
          "type": "uint8"
        },
        {
          "indexed": false,
          "internalType": "uint32",
          "name": "feePercentage",
          "type": "uint32"
        }
      ],
      "name": "FeeUpdated",
      "type": "event"
    },
    {
      "anonymous": false,
      "inputs": [
        {
          "indexed": false,
          "internalType": "uint256",
          "name": "tokenAmount",
          "type": "uint256"
        },
        {
          "indexed": false,
          "internalType": "uint256",
          "name": "ethAmount",
          "type": "uint256"
        }
      ],
      "name": "LockLiquidity",
      "type": "event"
    },
    {
      "anonymous": false,
      "inputs": [
        {
          "indexed": false,
          "internalType": "uint32",
          "name": "fogLockPercentage",
          "type": "uint32"
        },
        {
          "indexed": false,
          "internalType": "uint32",
          "name": "tokenLockPercentage",
          "type": "uint32"
        }
      ],
      "name": "LocksUpdate",
      "type": "event"
    },
    {
      "anonymous": false,
      "inputs": [
        {
          "indexed": false,
          "internalType": "address",
          "name": "account",
          "type": "address"
        }
      ],
      "name": "Paused",
      "type": "event"
    },
    {
      "anonymous": false,
      "inputs": [
        {
          "indexed": true,
          "internalType": "address",
          "name": "account",
          "type": "address"
        }
      ],
      "name": "PauserAdded",
      "type": "event"
    },
    {
      "anonymous": false,
      "inputs": [
        {
          "indexed": true,
          "internalType": "address",
          "name": "account",
          "type": "address"
        }
      ],
      "name": "PauserRemoved",
      "type": "event"
    },
    {
      "anonymous": false,
      "inputs": [
        {
          "indexed": false,
          "internalType": "uint256",
          "name": "ethAmount",
          "type": "uint256"
        }
      ],
      "name": "RewardedEth",
      "type": "event"
    },
    {
      "anonymous": false,
      "inputs": [
        {
          "indexed": false,
          "internalType": "uint256",
          "name": "tokenAmount",
          "type": "uint256"
        }
      ],
      "name": "RewardedFog",
      "type": "event"
    },
    {
      "anonymous": false,
      "inputs": [
        {
          "indexed": false,
          "internalType": "uint32",
          "name": "fogRewardPercentage",
          "type": "uint32"
        }
      ],
      "name": "RewardsUpdate",
      "type": "event"
    },
    {
      "anonymous": false,
      "inputs": [
        {
          "indexed": true,
          "internalType": "address",
          "name": "account",
          "type": "address"
        }
      ],
      "name": "SignerAdded",
      "type": "event"
    },
    {
      "anonymous": false,
      "inputs": [
        {
          "indexed": true,
          "internalType": "address",
          "name": "account",
          "type": "address"
        }
      ],
      "name": "SignerRemoved",
      "type": "event"
    },
    {
      "anonymous": false,
      "inputs": [
        {
          "indexed": false,
          "internalType": "address",
          "name": "tokenAddressPair",
          "type": "address"
        }
      ],
      "name": "TokenAddressPairUpdate",
      "type": "event"
    },
    {
      "anonymous": false,
      "inputs": [
        {
          "indexed": false,
          "internalType": "address",
          "name": "tokenAddress",
          "type": "address"
        }
      ],
      "name": "TokenAddressUpdate",
      "type": "event"
    },
    {
      "anonymous": false,
      "inputs": [
        {
          "indexed": true,
          "internalType": "address",
          "name": "from",
          "type": "address"
        },
        {
          "indexed": true,
          "internalType": "address",
          "name": "to",
          "type": "address"
        },
        {
          "indexed": false,
          "internalType": "uint256",
          "name": "value",
          "type": "uint256"
        }
      ],
      "name": "Transfer",
      "type": "event"
    },
    {
      "anonymous": false,
      "inputs": [
        {
          "indexed": false,
          "internalType": "address",
          "name": "account",
          "type": "address"
        }
      ],
      "name": "Unpaused",
      "type": "event"
    },
    {
      "anonymous": false,
      "inputs": [
        {
          "indexed": false,
          "internalType": "address",
          "name": "wethAddress",
          "type": "address"
        }
      ],
      "name": "WethAddressUpdate",
      "type": "event"
    },
    {
      "payable": true,
      "stateMutability": "payable",
      "type": "fallback"
    },
    {
      "constant": true,
      "inputs": [],
      "name": "DELEGATION_TYPEHASH",
      "outputs": [
        {
          "internalType": "bytes32",
          "name": "",
          "type": "bytes32"
        }
      ],
      "payable": false,
      "stateMutability": "view",
      "type": "function"
    },
    {
      "constant": true,
      "inputs": [],
      "name": "DOMAIN_TYPEHASH",
      "outputs": [
        {
          "internalType": "bytes32",
          "name": "",
          "type": "bytes32"
        }
      ],
      "payable": false,
      "stateMutability": "view",
      "type": "function"
    },
    {
      "constant": true,
      "inputs": [],
      "name": "ERC20LpSupply",
      "outputs": [
        {
          "internalType": "uint256",
          "name": "",
          "type": "uint256"
        }
      ],
      "payable": false,
      "stateMutability": "view",
      "type": "function"
    },
    {
      "constant": false,
      "inputs": [
        {
          "internalType": "uint256",
          "name": "_ethReceived",
          "type": "uint256"
        }
      ],
      "name": "_rewardLiquidityProvidersETH",
      "outputs": [],
      "payable": false,
      "stateMutability": "nonpayable",
      "type": "function"
    },
    {
      "constant": false,
      "inputs": [
        {
          "internalType": "address",
          "name": "account",
          "type": "address"
        }
      ],
      "name": "addPauser",
      "outputs": [],
      "payable": false,
      "stateMutability": "nonpayable",
      "type": "function"
    },
    {
      "constant": false,
      "inputs": [
        {
          "internalType": "address",
          "name": "account",
          "type": "address"
        }
      ],
      "name": "addSigner",
      "outputs": [],
      "payable": false,
      "stateMutability": "nonpayable",
      "type": "function"
    },
    {
      "constant": true,
      "inputs": [
        {
          "internalType": "address",
          "name": "owner",
          "type": "address"
        },
        {
          "internalType": "address",
          "name": "spender",
          "type": "address"
        }
      ],
      "name": "allowance",
      "outputs": [
        {
          "internalType": "uint256",
          "name": "",
          "type": "uint256"
        }
      ],
      "payable": false,
      "stateMutability": "view",
      "type": "function"
    },
    {
      "constant": false,
      "inputs": [
        {
          "internalType": "address",
          "name": "spender",
          "type": "address"
        },
        {
          "internalType": "uint256",
          "name": "value",
          "type": "uint256"
        }
      ],
      "name": "approve",
      "outputs": [
        {
          "internalType": "bool",
          "name": "",
          "type": "bool"
        }
      ],
      "payable": false,
      "stateMutability": "nonpayable",
      "type": "function"
    },
    {
      "constant": true,
      "inputs": [
        {
          "internalType": "address",
          "name": "account",
          "type": "address"
        }
      ],
      "name": "balanceOf",
      "outputs": [
        {
          "internalType": "uint256",
          "name": "",
          "type": "uint256"
        }
      ],
      "payable": false,
      "stateMutability": "view",
      "type": "function"
    },
    {
      "constant": true,
      "inputs": [
        {
          "internalType": "address",
          "name": "",
          "type": "address"
        }
      ],
      "name": "balances",
      "outputs": [
        {
          "internalType": "uint256",
          "name": "",
          "type": "uint256"
        }
      ],
      "payable": false,
      "stateMutability": "view",
      "type": "function"
    },
    {
      "constant": false,
      "inputs": [],
      "name": "burnLiquidity",
      "outputs": [],
      "payable": false,
      "stateMutability": "nonpayable",
      "type": "function"
    },
    {
      "constant": true,
      "inputs": [],
      "name": "burnableLiquidity",
      "outputs": [
        {
          "internalType": "uint256",
          "name": "",
          "type": "uint256"
        }
      ],
      "payable": false,
      "stateMutability": "view",
      "type": "function"
    },
    {
      "constant": true,
      "inputs": [],
      "name": "burnedLiquidity",
      "outputs": [
        {
          "internalType": "uint256",
          "name": "",
          "type": "uint256"
        }
      ],
      "payable": false,
      "stateMutability": "view",
      "type": "function"
    },
    {
      "constant": true,
      "inputs": [],
      "name": "burnedSupply",
      "outputs": [
        {
          "internalType": "uint256",
          "name": "",
          "type": "uint256"
        }
      ],
      "payable": false,
      "stateMutability": "view",
      "type": "function"
    },
    {
      "constant": true,
      "inputs": [
        {
          "internalType": "uint256",
          "name": "_amount",
          "type": "uint256"
        },
        {
          "internalType": "uint8",
          "name": "_feeDecimals",
          "type": "uint8"
        },
        {
          "internalType": "uint32",
          "name": "_percentage",
          "type": "uint32"
        }
      ],
      "name": "calculateVisabilityFee",
      "outputs": [
        {
          "internalType": "uint256",
          "name": "locked",
          "type": "uint256"
        }
      ],
      "payable": false,
      "stateMutability": "pure",
      "type": "function"
    },
    {
      "constant": true,
      "inputs": [
        {
          "internalType": "address",
          "name": "",
          "type": "address"
        },
        {
          "internalType": "uint32",
          "name": "",
          "type": "uint32"
        }
      ],
      "name": "checkpoints",
      "outputs": [
        {
          "internalType": "uint32",
          "name": "fromBlock",
          "type": "uint32"
        },
        {
          "internalType": "uint256",
          "name": "votes",
          "type": "uint256"
        }
      ],
      "payable": false,
      "stateMutability": "view",
      "type": "function"
    },
    {
      "constant": true,
      "inputs": [],
      "name": "decimals",
      "outputs": [
        {
          "internalType": "uint8",
          "name": "",
          "type": "uint8"
        }
      ],
      "payable": false,
      "stateMutability": "view",
      "type": "function"
    },
    {
      "constant": false,
      "inputs": [
        {
          "internalType": "address",
          "name": "spender",
          "type": "address"
        },
        {
          "internalType": "uint256",
          "name": "subtractedValue",
          "type": "uint256"
        }
      ],
      "name": "decreaseAllowance",
      "outputs": [
        {
          "internalType": "bool",
          "name": "",
          "type": "bool"
        }
      ],
      "payable": false,
      "stateMutability": "nonpayable",
      "type": "function"
    },
    {
      "constant": false,
      "inputs": [
        {
          "internalType": "address",
          "name": "delegatee",
          "type": "address"
        }
      ],
      "name": "delegate",
      "outputs": [],
      "payable": false,
      "stateMutability": "nonpayable",
      "type": "function"
    },
    {
      "constant": false,
      "inputs": [
        {
          "internalType": "address",
          "name": "delegatee",
          "type": "address"
        },
        {
          "internalType": "uint256",
          "name": "nonce",
          "type": "uint256"
        },
        {
          "internalType": "uint256",
          "name": "expiry",
          "type": "uint256"
        },
        {
          "internalType": "uint8",
          "name": "v",
          "type": "uint8"
        },
        {
          "internalType": "bytes32",
          "name": "r",
          "type": "bytes32"
        },
        {
          "internalType": "bytes32",
          "name": "s",
          "type": "bytes32"
        }
      ],
      "name": "delegateBySig",
      "outputs": [],
      "payable": false,
      "stateMutability": "nonpayable",
      "type": "function"
    },
    {
      "constant": true,
      "inputs": [
        {
          "internalType": "address",
          "name": "delegator",
          "type": "address"
        }
      ],
      "name": "delegates",
      "outputs": [
        {
          "internalType": "address",
          "name": "",
          "type": "address"
        }
      ],
      "payable": false,
      "stateMutability": "view",
      "type": "function"
    },
    {
      "constant": true,
      "inputs": [],
      "name": "feeDecimals",
      "outputs": [
        {
          "internalType": "uint8",
          "name": "",
          "type": "uint8"
        }
      ],
      "payable": false,
      "stateMutability": "view",
      "type": "function"
    },
    {
      "constant": true,
      "inputs": [],
      "name": "feePercentage",
      "outputs": [
        {
          "internalType": "uint32",
          "name": "",
          "type": "uint32"
        }
      ],
      "payable": false,
      "stateMutability": "view",
      "type": "function"
    },
    {
      "constant": true,
      "inputs": [],
      "name": "fogDensity",
      "outputs": [
        {
          "internalType": "uint256",
          "name": "",
          "type": "uint256"
        }
      ],
      "payable": false,
      "stateMutability": "view",
      "type": "function"
    },
    {
      "constant": true,
      "inputs": [],
      "name": "fogLockPercentage",
      "outputs": [
        {
          "internalType": "uint32",
          "name": "",
          "type": "uint32"
        }
      ],
      "payable": false,
      "stateMutability": "view",
      "type": "function"
    },
    {
      "constant": true,
      "inputs": [],
      "name": "fogRewardPercentage",
      "outputs": [
        {
          "internalType": "uint32",
          "name": "",
          "type": "uint32"
        }
      ],
      "payable": false,
      "stateMutability": "view",
      "type": "function"
    },
    {
      "constant": false,
      "inputs": [
        {
          "internalType": "uint256",
          "name": "_fogDensity",
          "type": "uint256"
        }
      ],
      "name": "fogRollingIn",
      "outputs": [],
      "payable": false,
      "stateMutability": "nonpayable",
      "type": "function"
    },
    {
      "constant": true,
      "inputs": [
        {
          "internalType": "address",
          "name": "account",
          "type": "address"
        }
      ],
      "name": "getCurrentVotes",
      "outputs": [
        {
          "internalType": "uint256",
          "name": "",
          "type": "uint256"
        }
      ],
      "payable": false,
      "stateMutability": "view",
      "type": "function"
    },
    {
      "constant": true,
      "inputs": [
        {
          "internalType": "address",
          "name": "account",
          "type": "address"
        },
        {
          "internalType": "uint256",
          "name": "blockNumber",
          "type": "uint256"
        }
      ],
      "name": "getPriorVotes",
      "outputs": [
        {
          "internalType": "uint256",
          "name": "",
          "type": "uint256"
        }
      ],
      "payable": false,
      "stateMutability": "view",
      "type": "function"
    },
    {
      "constant": false,
      "inputs": [
        {
          "internalType": "address",
          "name": "spender",
          "type": "address"
        },
        {
          "internalType": "uint256",
          "name": "addedValue",
          "type": "uint256"
        }
      ],
      "name": "increaseAllowance",
      "outputs": [
        {
          "internalType": "bool",
          "name": "",
          "type": "bool"
        }
      ],
      "payable": false,
      "stateMutability": "nonpayable",
      "type": "function"
    },
    {
      "constant": true,
      "inputs": [
        {
          "internalType": "address",
          "name": "account",
          "type": "address"
        }
      ],
      "name": "isPauser",
      "outputs": [
        {
          "internalType": "bool",
          "name": "",
          "type": "bool"
        }
      ],
      "payable": false,
      "stateMutability": "view",
      "type": "function"
    },
    {
      "constant": true,
      "inputs": [
        {
          "internalType": "address",
          "name": "account",
          "type": "address"
        }
      ],
      "name": "isSigner",
      "outputs": [
        {
          "internalType": "bool",
          "name": "",
          "type": "bool"
        }
      ],
      "payable": false,
      "stateMutability": "view",
      "type": "function"
    },
    {
      "constant": true,
      "inputs": [],
      "name": "liquidityRewardPercentage",
      "outputs": [
        {
          "internalType": "uint32",
          "name": "",
          "type": "uint32"
        }
      ],
      "payable": false,
      "stateMutability": "view",
      "type": "function"
    },
    {
      "constant": true,
      "inputs": [],
      "name": "lockedLiquidity",
      "outputs": [
        {
          "internalType": "uint256",
          "name": "",
          "type": "uint256"
        }
      ],
      "payable": false,
      "stateMutability": "view",
      "type": "function"
    },
    {
      "constant": true,
      "inputs": [],
      "name": "lockedSupply",
      "outputs": [
        {
          "internalType": "uint256",
          "name": "",
          "type": "uint256"
        }
      ],
      "payable": false,
      "stateMutability": "view",
      "type": "function"
    },
    {
      "constant": true,
      "inputs": [],
      "name": "name",
      "outputs": [
        {
          "internalType": "string",
          "name": "",
          "type": "string"
        }
      ],
      "payable": false,
      "stateMutability": "view",
      "type": "function"
    },
    {
      "constant": true,
      "inputs": [
        {
          "internalType": "address",
          "name": "",
          "type": "address"
        }
      ],
      "name": "nonces",
      "outputs": [
        {
          "internalType": "uint256",
          "name": "",
          "type": "uint256"
        }
      ],
      "payable": false,
      "stateMutability": "view",
      "type": "function"
    },
    {
      "constant": true,
      "inputs": [
        {
          "internalType": "address",
          "name": "",
          "type": "address"
        }
      ],
      "name": "numCheckpoints",
      "outputs": [
        {
          "internalType": "uint32",
          "name": "",
          "type": "uint32"
        }
      ],
      "payable": false,
      "stateMutability": "view",
      "type": "function"
    },
    {
      "constant": false,
      "inputs": [],
      "name": "pause",
      "outputs": [],
      "payable": false,
      "stateMutability": "nonpayable",
      "type": "function"
    },
    {
      "constant": true,
      "inputs": [],
      "name": "paused",
      "outputs": [
        {
          "internalType": "bool",
          "name": "",
          "type": "bool"
        }
      ],
      "payable": false,
      "stateMutability": "view",
      "type": "function"
    },
    {
      "constant": false,
      "inputs": [],
      "name": "renouncePauser",
      "outputs": [],
      "payable": false,
      "stateMutability": "nonpayable",
      "type": "function"
    },
    {
      "constant": false,
      "inputs": [],
      "name": "renounceSigner",
      "outputs": [],
      "payable": false,
      "stateMutability": "nonpayable",
      "type": "function"
    },
    {
      "constant": false,
      "inputs": [],
      "name": "rewardLiquidityProviders",
      "outputs": [],
      "payable": false,
      "stateMutability": "nonpayable",
      "type": "function"
    },
    {
      "constant": true,
      "inputs": [],
      "name": "symbol",
      "outputs": [
        {
          "internalType": "string",
          "name": "",
          "type": "string"
        }
      ],
      "payable": false,
      "stateMutability": "view",
      "type": "function"
    },
    {
      "constant": true,
      "inputs": [],
      "name": "tokenAddress",
      "outputs": [
        {
          "internalType": "address",
          "name": "",
          "type": "address"
        }
      ],
      "payable": false,
      "stateMutability": "view",
      "type": "function"
    },
    {
      "constant": true,
      "inputs": [],
      "name": "tokenAddressPair",
      "outputs": [
        {
          "internalType": "address",
          "name": "",
          "type": "address"
        }
      ],
      "payable": false,
      "stateMutability": "view",
      "type": "function"
    },
    {
      "constant": true,
      "inputs": [],
      "name": "tokenLockPercentage",
      "outputs": [
        {
          "internalType": "uint32",
          "name": "",
          "type": "uint32"
        }
      ],
      "payable": false,
      "stateMutability": "view",
      "type": "function"
    },
    {
      "constant": true,
      "inputs": [],
      "name": "totalSupply",
      "outputs": [
        {
          "internalType": "uint256",
          "name": "",
          "type": "uint256"
        }
      ],
      "payable": false,
      "stateMutability": "view",
      "type": "function"
    },
    {
      "constant": false,
      "inputs": [
        {
          "internalType": "address",
          "name": "to",
          "type": "address"
        },
        {
          "internalType": "uint256",
          "name": "value",
          "type": "uint256"
        }
      ],
      "name": "transfer",
      "outputs": [
        {
          "internalType": "bool",
          "name": "",
          "type": "bool"
        }
      ],
      "payable": false,
      "stateMutability": "nonpayable",
      "type": "function"
    },
    {
      "constant": false,
      "inputs": [
        {
          "internalType": "address",
          "name": "from",
          "type": "address"
        },
        {
          "internalType": "address",
          "name": "to",
          "type": "address"
        },
        {
          "internalType": "uint256",
          "name": "value",
          "type": "uint256"
        }
      ],
      "name": "transferFrom",
      "outputs": [
        {
          "internalType": "bool",
          "name": "",
          "type": "bool"
        }
      ],
      "payable": false,
      "stateMutability": "nonpayable",
      "type": "function"
    },
    {
      "constant": true,
      "inputs": [],
      "name": "uniswapV2Pair",
      "outputs": [
        {
          "internalType": "address",
          "name": "",
          "type": "address"
        }
      ],
      "payable": false,
      "stateMutability": "view",
      "type": "function"
    },
    {
      "constant": true,
      "inputs": [],
      "name": "uniswapV2Router",
      "outputs": [
        {
          "internalType": "address",
          "name": "",
          "type": "address"
        }
      ],
      "payable": false,
      "stateMutability": "view",
      "type": "function"
    },
    {
      "constant": false,
      "inputs": [],
      "name": "unpause",
      "outputs": [],
      "payable": false,
      "stateMutability": "nonpayable",
      "type": "function"
    },
    {
      "constant": true,
      "inputs": [],
      "name": "wethAddress",
      "outputs": [
        {
          "internalType": "address",
          "name": "",
          "type": "address"
        }
      ],
      "payable": false,
      "stateMutability": "view",
      "type": "function"
    },
    {
      "constant": false,
      "inputs": [
        {
          "internalType": "address",
          "name": "_uniswapV2Router",
          "type": "address"
        }
      ],
      "name": "setUniswapV2Router",
      "outputs": [],
      "payable": false,
      "stateMutability": "nonpayable",
      "type": "function"
    },
    {
      "constant": false,
      "inputs": [
        {
          "internalType": "address",
          "name": "_uniswapV2Pair",
          "type": "address"
        }
      ],
      "name": "setUniswapV2Pair",
      "outputs": [],
      "payable": false,
      "stateMutability": "nonpayable",
      "type": "function"
    },
    {
      "constant": false,
      "inputs": [
        {
          "internalType": "address",
          "name": "_tokenAddress",
          "type": "address"
        }
      ],
      "name": "setErc20TokenAddress",
      "outputs": [],
      "payable": false,
      "stateMutability": "nonpayable",
      "type": "function"
    },
    {
      "constant": false,
      "inputs": [
        {
          "internalType": "address",
          "name": "_tokenAddressPair",
          "type": "address"
        }
      ],
      "name": "setErc20TokenPairAddress",
      "outputs": [],
      "payable": false,
      "stateMutability": "nonpayable",
      "type": "function"
    },
    {
      "constant": false,
      "inputs": [
        {
          "internalType": "address",
          "name": "_wethAddress",
          "type": "address"
        }
      ],
      "name": "setWethAddress",
      "outputs": [],
      "payable": false,
      "stateMutability": "nonpayable",
      "type": "function"
    },
    {
      "constant": false,
      "inputs": [
        {
          "internalType": "uint8",
          "name": "_feeDecimals",
          "type": "uint8"
        },
        {
          "internalType": "uint32",
          "name": "_feePercentage",
          "type": "uint32"
        }
      ],
      "name": "updateFees",
      "outputs": [],
      "payable": false,
      "stateMutability": "nonpayable",
      "type": "function"
    },
    {
      "constant": false,
      "inputs": [
        {
          "internalType": "uint32",
          "name": "_fogRewardPercentage",
          "type": "uint32"
        }
      ],
      "name": "updateRewardsSplit",
      "outputs": [],
      "payable": false,
      "stateMutability": "nonpayable",
      "type": "function"
    },
    {
      "constant": false,
      "inputs": [
        {
          "internalType": "uint32",
          "name": "_fogLockPercentage",
          "type": "uint32"
        },
        {
          "internalType": "uint32",
          "name": "_tokenLockPercentage",
          "type": "uint32"
        }
      ],
      "name": "updateLpSplits",
      "outputs": [],
      "payable": false,
      "stateMutability": "nonpayable",
      "type": "function"
    },
    {
      "constant": false,
      "inputs": [
        {
          "internalType": "address",
          "name": "_tokenContract",
          "type": "address"
        },
        {
          "internalType": "address",
          "name": "_to",
          "type": "address"
        }
      ],
      "name": "withdrawForeignTokens",
      "outputs": [
        {
          "internalType": "bool",
          "name": "",
          "type": "bool"
        }
      ],
      "payable": false,
      "stateMutability": "nonpayable",
      "type": "function"
    }
  ],
  "bytecode": "0x60806040523480156200001157600080fd5b50604080518082018252600380825262466f6760e81b6020808401918252845180860190955282855262464f4760e81b9085015282519293926012926200005a92909162000885565b5081516200007090600490602085019062000885565b506005805460ff191660ff9290921691909117905550620000a5905062000096620000fa565b6001600160e01b03620000ff16565b600b805460ff19169055620000d5620000c66001600160e01b03620000fa16565b6001600160e01b036200015116565b620000f43369d3c21bcecceda10000006001600160e01b03620001a316565b62000927565b335b90565b6200011a81600a620001ee60201b620040041790919060201c565b6040516001600160a01b038216907f6719d08c1888103bea251a4ed56406bd0c3e69723c8a1686e017e7bbe159b6f890600090a250565b6200016c816012620001ee60201b620040041790919060201c565b6040516001600160a01b038216907f47d1c22a25bb3a5d4e481b9b1e6944c2eade3181a0a20b495ed61d35b5323f2490600090a250565b6001600160a01b03808316600090815260066020526040812054620001d39216836001600160e01b036200027b16565b620001ea8282620003ff60201b620044311760201c565b5050565b6200020382826001600160e01b036200050016565b1562000256576040805162461bcd60e51b815260206004820152601f60248201527f526f6c65733a206163636f756e7420616c72656164792068617320726f6c6500604482015290519081900360640190fd5b6001600160a01b0316600090815260209190915260409020805460ff19166001179055565b816001600160a01b0316836001600160a01b0316141580156200029e5750600081115b15620003fa576001600160a01b038316156200034f576001600160a01b03831660009081526008602052604081205463ffffffff169081620002e257600062000314565b6001600160a01b038516600090815260076020908152604080832063ffffffff60001987011684529091529020600101545b905060006200033284836200056960201b62002f361790919060201c565b90506200034b868484846001600160e01b03620005ba16565b5050505b6001600160a01b03821615620003fa576001600160a01b03821660009081526008602052604081205463ffffffff1690816200038d576000620003bf565b6001600160a01b038416600090815260076020908152604080832063ffffffff60001987011684529091529020600101545b90506000620003dd84836200072e60201b620032c01790919060201c565b9050620003f6858484846001600160e01b03620005ba16565b5050505b505050565b6001600160a01b0382166200045b576040805162461bcd60e51b815260206004820152601f60248201527f45524332303a206d696e7420746f20746865207a65726f206164647265737300604482015290519081900360640190fd5b62000477816002546200072e60201b620032c01790919060201c565b6002556001600160a01b03821660009081526020818152604090912054620004aa918390620032c06200072e821b17901c565b6001600160a01b0383166000818152602081815260408083209490945583518581529351929391927fddf252ad1be2c89b69c2b068fc378daa952ba7f163c4a11628f55a4df523b3ef9281900390910190a35050565b60006001600160a01b038216620005495760405162461bcd60e51b8152600401808060200182810382526022815260200180620053356022913960400191505060405180910390fd5b506001600160a01b03166000908152602091909152604090205460ff1690565b6000620005b383836040518060400160405280601e81526020017f536166654d6174683a207375627472616374696f6e206f766572666c6f7700008152506200078960201b60201c565b9392505050565b6000620005ea436040518060600160405280603f8152602001620052f6603f91396001600160e01b036200082416565b905060008463ffffffff161180156200063457506001600160a01b038516600090815260076020908152604080832063ffffffff6000198901811685529252909120548282169116145b1562000673576001600160a01b038516600090815260076020908152604080832063ffffffff60001989011684529091529020600101829055620006e4565b60408051808201825263ffffffff808416825260208083018681526001600160a01b038a166000818152600784528681208b8616825284528681209551865490861663ffffffff19918216178755925160019687015590815260089092529390208054928801909116919092161790555b604080518481526020810184905281516001600160a01b038816927fdec2bacdd2f05b59de34da9b523dff8be42e5e38e818c82fdb0bae774387a724928290030190a25050505050565b600082820183811015620005b3576040805162461bcd60e51b815260206004820152601b60248201527f536166654d6174683a206164646974696f6e206f766572666c6f770000000000604482015290519081900360640190fd5b600081848411156200081c5760405162461bcd60e51b81526004018080602001828103825283818151815260200191508051906020019080838360005b83811015620007e0578181015183820152602001620007c6565b50505050905090810190601f1680156200080e5780820380516001836020036101000a031916815260200191505b509250505060405180910390fd5b505050900390565b60008164010000000084106200087d5760405162461bcd60e51b8152602060048201818152835160248401528351909283926044909101919085019080838360008315620007e0578181015183820152602001620007c6565b509192915050565b828054600181600116156101000203166002900490600052602060002090601f016020900481019282601f10620008c857805160ff1916838001178555620008f8565b82800160010185558215620008f8579182015b82811115620008f8578251825591602001919060010190620008db565b50620009069291506200090a565b5090565b620000fc91905b8082111562000906576000815560010162000911565b6149bf80620009376000396000f3fe6080604052600436106103b85760003560e01c806371db5869116101f2578063b47ba5281161010d578063db647b76116100a0578063e7a324dc1161006f578063e7a324dc14610d3e578063eb107e2014610d53578063eb12d61e14610d86578063f1127ed814610db9576103b8565b8063db647b7614610cc4578063dd62ed3e14610cd9578063e4f5a6ab14610d14578063e5c8b03d14610d29576103b8565b8063cc0f1786116100dc578063cc0f178614610c4a578063d19b93f114610c5f578063d6aeb28c14610c74578063da942cbf14610caf576103b8565b8063b47ba52814610b75578063b4b5ea5714610bae578063c3cda52014610be1578063ca5c7b9114610c35576103b8565b806399494abd11610185578063a457c2d711610154578063a457c2d714610abb578063a9059cbb14610af4578063a96e242314610b2d578063b439824414610b60576103b8565b806399494abd14610a265780639d76ea5814610a5e578063a001ecdd14610a73578063a29a608914610a88576103b8565b806382dc1ec4116101c157806382dc1ec4146109b45780638456cb59146109e7578063858750ab146109fc57806395d89b4114610a11576103b8565b806371db5869146108eb578063782d6fe1146109155780637df73e271461094e5780637ecebe0014610981576103b8565b806339509351116102e2578063587cde1e116102755780636a7eed50116102445780636a7eed50146108465780636ef8d66d146108705780636fcfff451461088557806370a08231146108b8576103b8565b8063587cde1e1461079b5780635c19a95c146107ce5780635c975abb146108015780635f17e52314610816576103b8565b80634c3aad0f116102b15780634c3aad0f146107295780634f0e0ef31461073e57806355d0a1d0146107535780635675688d14610768576103b8565b806339509351146106935780633f4ba83a146106cc57806346fbf68e146106e157806349bd5a5e14610714576103b8565b80632171caa41161035a5780632898cafa116103295780632898cafa1461062957806328bec02b1461063e5780632d87ea6014610653578063313ce56714610668576103b8565b80632171caa41461054657806323b872dd1461057457806326dacb40146105b757806327e235e3146105f6576103b8565b80631694505e116103965780631694505e146104c457806318160ddd146104f55780631ec3ae291461051c57806320606b7014610531576103b8565b806306fdde03146103ba578063095ea7b3146104445780631419841d14610491575b005b3480156103c657600080fd5b506103cf610e18565b6040805160208082528351818301528351919283929083019185019080838360005b838110156104095781810151838201526020016103f1565b50505050905090810190601f1680156104365780820380516001836020036101000a031916815260200191505b509250505060405180910390f35b34801561045057600080fd5b5061047d6004803603604081101561046757600080fd5b506001600160a01b038135169060200135610eae565b604080519115158252519081900360200190f35b34801561049d57600080fd5b506103b8600480360360208110156104b457600080fd5b50356001600160a01b0316610f1c565b3480156104d057600080fd5b506104d9610ff3565b604080516001600160a01b039092168252519081900360200190f35b34801561050157600080fd5b5061050a611007565b60408051918252519081900360200190f35b34801561052857600080fd5b506104d961100d565b34801561053d57600080fd5b5061050a61101c565b34801561055257600080fd5b5061055b611037565b6040805163ffffffff9092168252519081900360200190f35b34801561058057600080fd5b5061047d6004803603606081101561059757600080fd5b506001600160a01b0381358116916020810135909116906040013561104f565b3480156105c357600080fd5b5061050a600480360360608110156105da57600080fd5b50803590602081013560ff16906040013563ffffffff166110bd565b34801561060257600080fd5b5061050a6004803603602081101561061957600080fd5b50356001600160a01b03166110eb565b34801561063557600080fd5b5061050a6110fd565b34801561064a57600080fd5b5061050a611195565b34801561065f57600080fd5b5061050a6111f9565b34801561067457600080fd5b5061067d611209565b6040805160ff9092168252519081900360200190f35b34801561069f57600080fd5b5061047d600480360360408110156106b657600080fd5b506001600160a01b038135169060200135611212565b3480156106d857600080fd5b506103b8611277565b3480156106ed57600080fd5b5061047d6004803603602081101561070457600080fd5b50356001600160a01b0316611387565b34801561072057600080fd5b506104d961139a565b34801561073557600080fd5b5061055b6113a9565b34801561074a57600080fd5b506104d96113b5565b34801561075f57600080fd5b5061050a6113c4565b34801561077457600080fd5b506103b86004803603602081101561078b57600080fd5b50356001600160a01b03166114ac565b3480156107a757600080fd5b506104d9600480360360208110156107be57600080fd5b50356001600160a01b0316611567565b3480156107da57600080fd5b506103b8600480360360208110156107f157600080fd5b50356001600160a01b0316611585565b34801561080d57600080fd5b5061047d611592565b34801561082257600080fd5b506103b86004803603602081101561083957600080fd5b503563ffffffff1661159b565b34801561085257600080fd5b506103b86004803603602081101561086957600080fd5b503561164a565b34801561087c57600080fd5b506103b86117c2565b34801561089157600080fd5b5061055b600480360360208110156108a857600080fd5b50356001600160a01b03166117d4565b3480156108c457600080fd5b5061050a600480360360208110156108db57600080fd5b50356001600160a01b03166117ec565b3480156108f757600080fd5b506103b86004803603602081101561090e57600080fd5b5035611807565b34801561092157600080fd5b5061050a6004803603604081101561093857600080fd5b506001600160a01b038135169060200135611986565b34801561095a57600080fd5b5061047d6004803603602081101561097157600080fd5b50356001600160a01b0316611b8e565b34801561098d57600080fd5b5061050a600480360360208110156109a457600080fd5b50356001600160a01b0316611ba1565b3480156109c057600080fd5b506103b8600480360360208110156109d757600080fd5b50356001600160a01b0316611bb3565b3480156109f357600080fd5b506103b8611c02565b348015610a0857600080fd5b5061050a611cf4565b348015610a1d57600080fd5b506103cf611d58565b348015610a3257600080fd5b506103b860048036036040811015610a4957600080fd5b5063ffffffff81358116916020013516611db9565b348015610a6a57600080fd5b506104d9611eaf565b348015610a7f57600080fd5b5061055b611ebe565b348015610a9457600080fd5b506103b860048036036020811015610aab57600080fd5b50356001600160a01b0316611ee3565b348015610ac757600080fd5b5061047d60048036036040811015610ade57600080fd5b506001600160a01b038135169060200135611fab565b348015610b0057600080fd5b5061047d60048036036040811015610b1757600080fd5b506001600160a01b038135169060200135612010565b348015610b3957600080fd5b506103b860048036036020811015610b5057600080fd5b50356001600160a01b0316612075565b348015610b6c57600080fd5b5061050a61212d565b348015610b8157600080fd5b506103b860048036036040811015610b9857600080fd5b50803560ff16906020013563ffffffff1661214e565b348015610bba57600080fd5b5061050a60048036036020811015610bd157600080fd5b50356001600160a01b0316612262565b348015610bed57600080fd5b506103b8600480360360c0811015610c0457600080fd5b506001600160a01b038135169060208101359060408101359060ff6060820135169060808101359060a001356122c6565b348015610c4157600080fd5b5061050a612592565b348015610c5657600080fd5b5061067d61261b565b348015610c6b57600080fd5b5061055b61263c565b348015610c8057600080fd5b5061047d60048036036040811015610c9757600080fd5b506001600160a01b0381358116916020013516612665565b348015610cbb57600080fd5b506103b86128a2565b348015610cd057600080fd5b506103b8612a43565b348015610ce557600080fd5b5061050a60048036036040811015610cfc57600080fd5b506001600160a01b0381358116916020013516612a54565b348015610d2057600080fd5b5061055b612a7f565b348015610d3557600080fd5b506103b8612a93565b348015610d4a57600080fd5b5061050a612aa3565b348015610d5f57600080fd5b506103b860048036036020811015610d7657600080fd5b50356001600160a01b0316612abe565b348015610d9257600080fd5b506103b860048036036020811015610da957600080fd5b50356001600160a01b0316612b76565b348015610dc557600080fd5b50610df860048036036040811015610ddc57600080fd5b5080356001600160a01b0316906020013563ffffffff16612bc5565b6040805163ffffffff909316835260208301919091528051918290030190f35b60038054604080516020601f6002600019610100600188161502019095169490940493840181900481028201810190925282815260609390929091830182828015610ea45780601f10610e7957610100808354040283529160200191610ea4565b820191906000526020600020905b815481529060010190602001808311610e8757829003601f168201915b5050505050905090565b600b5460009060ff1615610f09576040805162461bcd60e51b815260206004820152601060248201527f5061757361626c653a2070617573656400000000000000000000000000000000604482015290519081900360640190fd5b610f138383612bf2565b90505b92915050565b610f2c610f27612c0f565b611b8e565b610f675760405162461bcd60e51b81526004018080602001828103825260308152602001806147eb6030913960400191505060405180910390fd5b600b5461010090046001600160a01b031615610fb45760405162461bcd60e51b81526004018080602001828103825260298152602001806145456029913960400191505060405180910390fd5b600b80546001600160a01b03909216610100027fffffffffffffffffffffff0000000000000000000000000000000000000000ff909216919091179055565b600b5461010090046001600160a01b031681565b60025490565b600e546001600160a01b031681565b6040518060436146b982396043019050604051809103902081565b60105468010000000000000000900463ffffffff1681565b600b5460009060ff16156110aa576040805162461bcd60e51b815260206004820152601060248201527f5061757361626c653a2070617573656400000000000000000000000000000000604482015290519081900360640190fd5b6110b5848484612c13565b949350505050565b60006110b5600260ff851601600a0a6110df8663ffffffff80871690612ca016565b9063ffffffff612cf916565b60116020526000908152604090205481565b600c54604080517f70a08231000000000000000000000000000000000000000000000000000000008152600060048201819052915191926001600160a01b0316916370a0823191602480820192602092909190829003018186803b15801561116457600080fd5b505afa158015611178573d6000803e3d6000fd5b505050506040513d602081101561118e57600080fd5b5051905090565b600e54604080517f70a0823100000000000000000000000000000000000000000000000000000000815230600482015290516000926001600160a01b0316916370a08231916024808301926020929190829003018186803b15801561116457600080fd5b6000611204306117ec565b905090565b60055460ff1690565b600b5460009060ff161561126d576040805162461bcd60e51b815260206004820152601060248201527f5061757361626c653a2070617573656400000000000000000000000000000000604482015290519081900360640190fd5b610f138383612d3b565b611287611282612c0f565b611387565b6112c25760405162461bcd60e51b815260040180806020018281038252603081526020018061456e6030913960400191505060405180910390fd5b600b5460ff16611319576040805162461bcd60e51b815260206004820152601460248201527f5061757361626c653a206e6f7420706175736564000000000000000000000000604482015290519081900360640190fd5b600b80547fffffffffffffffffffffffffffffffffffffffffffffffffffffffffffffff001690557f5db9ee0a495bf2e6ff9c91a7834c1ba4fdd244a5e8aa4e537bd38aeae4b073aa61136a612c0f565b604080516001600160a01b039092168252519081900360200190a1565b6000610f16600a8363ffffffff612d8f16565b600c546001600160a01b031681565b60105463ffffffff1681565b600f546001600160a01b031681565b600080600c60009054906101000a90046001600160a01b03166001600160a01b03166318160ddd6040518163ffffffff1660e01b815260040160206040518083038186803b15801561141557600080fd5b505afa158015611429573d6000803e3d6000fd5b505050506040513d602081101561143f57600080fd5b50519050600061144d6110fd565b9050600061146a836110df8464e8d4a5100063ffffffff612ca016565b600c54909150600090611485906001600160a01b03166117ec565b905060006114a264e8d4a510006110df848663ffffffff612ca016565b9550505050505090565b6114b7610f27612c0f565b6114f25760405162461bcd60e51b81526004018080602001828103825260308152602001806147eb6030913960400191505060405180910390fd5b600e80547fffffffffffffffffffffffff0000000000000000000000000000000000000000166001600160a01b0383811691909117909155600d546040805191909216815290517f06c5c102bc0fb3e459e4385f59397c86c78ebb61772f0b82e4fe630fe8b68246916020908290030190a150565b6001600160a01b039081166000908152600660205260409020541690565b61158f3382612df6565b50565b600b5460ff1690565b6115a6610f27612c0f565b6115e15760405162461bcd60e51b81526004018080602001828103825260308152602001806147eb6030913960400191505060405180910390fd5b6010805463ffffffff83167fffffffffffffffffffffffffffffffffffffffffffffffffffffffff00000000909116811790915560408051918252517fe30690a9823f6f2fa1cff7880b59f3764efb55bb56097a17723282e4c2d1c24b9181900360200190a150565b611653306117ec565b8111156116915760405162461bcd60e51b815260040180806020018281038252605381526020018061471d6053913960600191505060405180910390fd5b806116cd5760405162461bcd60e51b81526004018080602001828103825260428152602001806145f16042913960600191505060405180910390fd5b600f5460105460009161170b91849174010000000000000000000000000000000000000000900460ff1690640100000000900463ffffffff166110bd565b905061171681612ea3565b6000611728838363ffffffff612f3616565b600f546010549192506000916117629184917401000000000000000000000000000000000000000090910460ff169063ffffffff166110bd565b905061176d81612f78565b600061177f838363ffffffff612f3616565b905060006117af82600f60149054906101000a900460ff16601060089054906101000a900463ffffffff166110bd565b90506117ba81612fd1565b505050505050565b6117d26117cd612c0f565b6131ae565b565b60086020526000908152604090205463ffffffff1681565b6001600160a01b031660009081526020819052604090205490565b600f60009054906101000a90046001600160a01b03166001600160a01b031663d0e30db0826040518263ffffffff1660e01b81526004016000604051808303818588803b15801561185757600080fd5b505af115801561186b573d6000803e3d6000fd5b5050600f54600c54604080517fa9059cbb0000000000000000000000000000000000000000000000000000000081526001600160a01b03928316600482015260248101889052905191909216945063a9059cbb9350604480830193506020928290030181600087803b1580156118e057600080fd5b505af11580156118f4573d6000803e3d6000fd5b505050506040513d602081101561190a57600080fd5b5050600c54604080517ffff6cae900000000000000000000000000000000000000000000000000000000815290516001600160a01b039092169163fff6cae99160048082019260009290919082900301818387803b15801561196b57600080fd5b505af115801561197f573d6000803e3d6000fd5b5050505050565b60004382106119c65760405162461bcd60e51b81526004018080602001828103825260328152602001806148406032913960400191505060405180910390fd5b6001600160a01b03831660009081526008602052604090205463ffffffff16806119f4576000915050610f16565b6001600160a01b038416600090815260076020908152604080832063ffffffff600019860181168552925290912054168310611a63576001600160a01b03841660009081526007602090815260408083206000199490940163ffffffff16835292905220600101549050610f16565b6001600160a01b038416600090815260076020908152604080832083805290915290205463ffffffff16831015611a9e576000915050610f16565b600060001982015b8163ffffffff168163ffffffff161115611b5757600282820363ffffffff16048103611ad061441a565b506001600160a01b038716600090815260076020908152604080832063ffffffff808616855290835292819020815180830190925280549093168082526001909301549181019190915290871415611b3257602001519450610f169350505050565b805163ffffffff16871115611b4957819350611b50565b6001820392505b5050611aa6565b506001600160a01b038516600090815260076020908152604080832063ffffffff9094168352929052206001015491505092915050565b6000610f1660128363ffffffff612d8f16565b60096020526000908152604090205481565b611bbe611282612c0f565b611bf95760405162461bcd60e51b815260040180806020018281038252603081526020018061456e6030913960400191505060405180910390fd5b61158f816131f6565b611c0d611282612c0f565b611c485760405162461bcd60e51b815260040180806020018281038252603081526020018061456e6030913960400191505060405180910390fd5b600b5460ff1615611ca0576040805162461bcd60e51b815260206004820152601060248201527f5061757361626c653a2070617573656400000000000000000000000000000000604482015290519081900360640190fd5b600b80547fffffffffffffffffffffffffffffffffffffffffffffffffffffffffffffff001660011790557f62e78cea01bee320cd4e420270b5ea74000d11b0c9f74754ebdbfc544b05a25861136a612c0f565b600c54604080517f70a0823100000000000000000000000000000000000000000000000000000000815230600482015290516000926001600160a01b0316916370a08231916024808301926020929190829003018186803b15801561116457600080fd5b60048054604080516020601f6002600019610100600188161502019095169490940493840181900481028201810190925282815260609390929091830182828015610ea45780601f10610e7957610100808354040283529160200191610ea4565b611dc4610f27612c0f565b611dff5760405162461bcd60e51b81526004018080602001828103825260308152602001806147eb6030913960400191505060405180910390fd5b601080547fffffffffffffffffffffffffffffffffffffffffffffffff00000000ffffffff1664010000000063ffffffff858116918202929092177fffffffffffffffffffffffffffffffffffffffff00000000ffffffffffffffff16680100000000000000009285169283021790925560408051928352602083019190915280517f7f5ee2cd301347ace459683b3451ff4afba9687d0be61feaa95490db46cb4e619281900390910190a15050565b600d546001600160a01b031681565b600f547501000000000000000000000000000000000000000000900463ffffffff1681565b611eee610f27612c0f565b611f295760405162461bcd60e51b81526004018080602001828103825260308152602001806147eb6030913960400191505060405180910390fd5b600c546001600160a01b031615611f715760405162461bcd60e51b81526004018080602001828103825260278152602001806149056027913960400191505060405180910390fd5b600c80547fffffffffffffffffffffffff0000000000000000000000000000000000000000166001600160a01b0392909216919091179055565b600b5460009060ff1615612006576040805162461bcd60e51b815260206004820152601060248201527f5061757361626c653a2070617573656400000000000000000000000000000000604482015290519081900360640190fd5b610f13838361323e565b600b5460009060ff161561206b576040805162461bcd60e51b815260206004820152601060248201527f5061757361626c653a2070617573656400000000000000000000000000000000604482015290519081900360640190fd5b610f1383836132ac565b612080610f27612c0f565b6120bb5760405162461bcd60e51b81526004018080602001828103825260308152602001806147eb6030913960400191505060405180910390fd5b600f80547fffffffffffffffffffffffff0000000000000000000000000000000000000000166001600160a01b03838116919091179182905560408051929091168252517fd4b6a61f2df2585993968cce1ab1edbec92c9c77c7bb81172643b44c42788beb916020908290030190a150565b600061120461213a6110fd565b612142611cf4565b9063ffffffff6132c016565b612159610f27612c0f565b6121945760405162461bcd60e51b81526004018080602001828103825260308152602001806147eb6030913960400191505060405180910390fd5b600f805463ffffffff8316750100000000000000000000000000000000000000000081027fffffffffffffff00000000ffffffffffffffffffffffffffffffffffffffffff60ff87167401000000000000000000000000000000000000000081027fffffffffffffffffffffff00ffffffffffffffffffffffffffffffffffffffff90951694909417161790925560408051918252602082019290925281517f460fa919625630f734b5d86356a2511f134b6df313c793ca09e0399de8d933a0929181900390910190a15050565b6001600160a01b03811660009081526008602052604081205463ffffffff168061228d5760006122bf565b6001600160a01b038316600090815260076020908152604080832063ffffffff60001986011684529091529020600101545b9392505050565b600060405180806146b960439139604301905060405180910390206122e9610e18565b805190602001206122f861331a565b3060405160200180858152602001848152602001838152602001826001600160a01b03166001600160a01b031681526020019450505050506040516020818303038152906040528051906020012090506000604051808061492c603a91396040805191829003603a0182206020808401919091526001600160a01b038c1683830152606083018b905260808084018b90528251808503909101815260a0840183528051908201207f190100000000000000000000000000000000000000000000000000000000000060c085015260c2840187905260e2808501829052835180860390910181526101028501808552815191840191909120600091829052610122860180865281905260ff8c1661014287015261016286018b905261018286018a9052935191965092945091926001926101a280830193927fffffffffffffffffffffffffffffffffffffffffffffffffffffffffffffffe08301929081900390910190855afa15801561246f573d6000803e3d6000fd5b50506040517fffffffffffffffffffffffffffffffffffffffffffffffffffffffffffffffe001519150506001600160a01b0381166124df5760405162461bcd60e51b815260040180806020018281038252603181526020018061459e6031913960400191505060405180910390fd5b6001600160a01b0381166000908152600960205260409020805460018101909155891461253d5760405162461bcd60e51b815260040180806020018281038252602d815260200180614896602d913960400191505060405180910390fd5b8742111561257c5760405162461bcd60e51b81526004018080602001828103825260318152602001806147ba6031913960400191505060405180910390fd5b612586818b612df6565b50505050505050505050565b600080600c60009054906101000a90046001600160a01b03166001600160a01b03166318160ddd6040518163ffffffff1660e01b815260040160206040518083038186803b1580156125e357600080fd5b505afa1580156125f7573d6000803e3d6000fd5b505050506040513d602081101561260d57600080fd5b50519050600061144d61212d565b600f5474010000000000000000000000000000000000000000900460ff1681565b600f54790100000000000000000000000000000000000000000000000000900463ffffffff1681565b6000612672610f27612c0f565b6126ad5760405162461bcd60e51b81526004018080602001828103825260308152602001806147eb6030913960400191505060405180910390fd5b6001600160a01b03831630141561270b576040805162461bcd60e51b815260206004820152601360248201527f63616e6e6f7420776974686472617720466f6700000000000000000000000000604482015290519081900360640190fd5b600c546001600160a01b038481169116141561276e576040805162461bcd60e51b815260206004820152601660248201527f63616e6e6f7420776974686472617720464f47204c5000000000000000000000604482015290519081900360640190fd5b604080517f70a08231000000000000000000000000000000000000000000000000000000008152306004820152905184916000916001600160a01b038416916370a08231916024808301926020929190829003018186803b1580156127d257600080fd5b505afa1580156127e6573d6000803e3d6000fd5b505050506040513d60208110156127fc57600080fd5b5051604080517fa9059cbb0000000000000000000000000000000000000000000000000000000081526001600160a01b0387811660048301526024820184905291519293509084169163a9059cbb916044808201926020929091908290030181600087803b15801561286d57600080fd5b505af1158015612881573d6000803e3d6000fd5b505050506040513d602081101561289757600080fd5b505195945050505050565b600c54604080517f70a0823100000000000000000000000000000000000000000000000000000000815230600482015290516000926001600160a01b0316916370a08231916024808301926020929190829003018186803b15801561290657600080fd5b505afa15801561291a573d6000803e3d6000fd5b505050506040513d602081101561293057600080fd5b50519050806129705760405162461bcd60e51b81526004018080602001828103825260428152602001806148c36042913960600191505060405180910390fd5b600c54604080517fa9059cbb0000000000000000000000000000000000000000000000000000000081526000600482018190526024820185905291516001600160a01b039093169263a9059cbb92604480840193602093929083900390910190829087803b1580156129e157600080fd5b505af11580156129f5573d6000803e3d6000fd5b505050506040513d6020811015612a0b57600080fd5b50506040805182815290517f5ad60a3809edf57c6c3e72fca26945b0cbce9e4a2d6aea167e35fc04c043bb9e9181900360200190a150565b6117d2612a4f306117ec565b61164a565b6001600160a01b03918216600090815260016020908152604080832093909416825291909152205490565b601054640100000000900463ffffffff1681565b6117d2612a9e612c0f565b61331e565b60405180603a61492c8239603a019050604051809103902081565b612ac9610f27612c0f565b612b045760405162461bcd60e51b81526004018080602001828103825260308152602001806147eb6030913960400191505060405180910390fd5b600d80547fffffffffffffffffffffffff0000000000000000000000000000000000000000166001600160a01b03838116919091179182905560408051929091168252517f6b805866760940a00a9ab81cab8fd18cb26b9342791ad5a21476b0b215bd1973916020908290030190a150565b612b81610f27612c0f565b612bbc5760405162461bcd60e51b81526004018080602001828103825260308152602001806147eb6030913960400191505060405180910390fd5b61158f81613366565b60076020908152600092835260408084209091529082529020805460019091015463ffffffff9091169082565b6000612c06612bff612c0f565b84846133ae565b50600192915050565b3390565b6000612c2084848461349a565b612c9684612c2c612c0f565b612c9185604051806060016040528060288152602001614770602891396001600160a01b038a16600090815260016020526040812090612c6a612c0f565b6001600160a01b03168152602081019190915260400160002054919063ffffffff61359116565b6133ae565b5060019392505050565b600082612caf57506000610f16565b82820282848281612cbc57fe5b0414610f135760405162461bcd60e51b81526004018080602001828103825260218152602001806146fc6021913960400191505060405180910390fd5b6000610f1383836040518060400160405280601a81526020017f536166654d6174683a206469766973696f6e206279207a65726f000000000000815250613628565b6000612c06612d48612c0f565b84612c918560016000612d59612c0f565b6001600160a01b03908116825260208083019390935260409182016000908120918c16815292529020549063ffffffff6132c016565b60006001600160a01b038216612dd65760405162461bcd60e51b81526004018080602001828103825260228152602001806147986022913960400191505060405180910390fd5b506001600160a01b03166000908152602091909152604090205460ff1690565b6001600160a01b0380831660009081526006602052604081205490911690612e1d846117ec565b6001600160a01b0385811660008181526006602052604080822080547fffffffffffffffffffffffff000000000000000000000000000000000000000016898616908117909155905194955093928616927f3134e8a2e6d97e929a7e54011ea5485d7d196dd5f0ba4d4ef95803e8e3fc257f9190a4612e9d82848361368d565b50505050565b6000612eb682600263ffffffff612cf916565b90506000612eca838363ffffffff612f3616565b905047612ed6836137d6565b6000612ee8478363ffffffff612f3616565b9050612ef483826139b8565b604080518481526020810183905281517f1ac88120e7cb0c1102895c679e94394ce3fb63f5fc8ff9519213798ec483fbc0929181900390910190a15050505050565b6000610f1383836040518060400160405280601e81526020017f536166654d6174683a207375627472616374696f6e206f766572666c6f770000815250613591565b6000612f8b82600263ffffffff612cf916565b90506000612f9f838363ffffffff612f3616565b905047612fab836137d6565b6000612fbd478363ffffffff612f3616565b9050612fc883613a8c565b61197f81611807565b8047612fdc826137d6565b6000612fee478363ffffffff612f3616565b9050600061300382600263ffffffff612cf916565b90506000613017838363ffffffff612f3616565b600d54604080517f70a0823100000000000000000000000000000000000000000000000000000000815230600482015290519293506000926001600160a01b03909216916370a0823191602480820192602092909190829003018186803b15801561308157600080fd5b505afa158015613095573d6000803e3d6000fd5b505050506040513d60208110156130ab57600080fd5b505190506130b883613b43565b600d54604080517f70a08231000000000000000000000000000000000000000000000000000000008152306004820152905160009261315d9285926001600160a01b03909216916370a0823191602480820192602092909190829003018186803b15801561312557600080fd5b505afa158015613139573d6000803e3d6000fd5b505050506040513d602081101561314f57600080fd5b50519063ffffffff612f3616565b90506131698184613da7565b604080518281526020810185905281517fc1ab6f750af944fa07ec9d155c2b70e65c62b78f5e1ac3704bf46c153dbe23b5929181900390910190a15050505050505050565b6131bf600a8263ffffffff613f7f16565b6040516001600160a01b038216907fcd265ebaf09df2871cc7bd4133404a235ba12eff2041bb89d9c714a2621c7c7e90600090a250565b613207600a8263ffffffff61400416565b6040516001600160a01b038216907f6719d08c1888103bea251a4ed56406bd0c3e69723c8a1686e017e7bbe159b6f890600090a250565b6000612c0661324b612c0f565b84612c91856040518060600160405280602581526020016149666025913960016000613275612c0f565b6001600160a01b03908116825260208083019390935260409182016000908120918d1681529252902054919063ffffffff61359116565b6000612c066132b9612c0f565b848461349a565b600082820183811015610f13576040805162461bcd60e51b815260206004820152601b60248201527f536166654d6174683a206164646974696f6e206f766572666c6f770000000000604482015290519081900360640190fd5b4690565b61332f60128263ffffffff613f7f16565b6040516001600160a01b038216907f3525e22824a8a7df2c9a6029941c824cf95b6447f1e13d5128fd3826d35afe8b90600090a250565b61337760128263ffffffff61400416565b6040516001600160a01b038216907f47d1c22a25bb3a5d4e481b9b1e6944c2eade3181a0a20b495ed61d35b5323f2490600090a250565b6001600160a01b0383166133f35760405162461bcd60e51b81526004018080602001828103825260248152602001806148726024913960400191505060405180910390fd5b6001600160a01b0382166134385760405162461bcd60e51b81526004018080602001828103825260228152602001806145cf6022913960400191505060405180910390fd5b6001600160a01b03808416600081815260016020908152604080832094871680845294825291829020859055815185815291517f8c5be1e5ebec7d5bd14f71427d1e84f3dd0314c0f7b2291e5b200ac8c7c3b9259281900390910190a3505050565b600b5460ff16156134f2576040805162461bcd60e51b815260206004820152601060248201527f5061757361626c653a2070617573656400000000000000000000000000000000604482015290519081900360640190fd5b6001600160a01b038316301461358157600f5460009061354e90839074010000000000000000000000000000000000000000810460ff16907501000000000000000000000000000000000000000000900463ffffffff166110bd565b90506000613562838363ffffffff612f3616565b905061356f8530846140a3565b61357a8585836140a3565b505061358c565b61358c8383836140a3565b505050565b600081848411156136205760405162461bcd60e51b81526004018080602001828103825283818151815260200191508051906020019080838360005b838110156135e55781810151838201526020016135cd565b50505050905090810190601f1680156136125780820380516001836020036101000a031916815260200191505b509250505060405180910390fd5b505050900390565b600081836136775760405162461bcd60e51b81526020600482018181528351602484015283519092839260449091019190850190808383600083156135e55781810151838201526020016135cd565b50600083858161368357fe5b0495945050505050565b816001600160a01b0316836001600160a01b0316141580156136af5750600081115b1561358c576001600160a01b03831615613747576001600160a01b03831660009081526008602052604081205463ffffffff1690816136ef576000613721565b6001600160a01b038516600090815260076020908152604080832063ffffffff60001987011684529091529020600101545b90506000613735828563ffffffff612f3616565b9050613743868484846140e0565b5050505b6001600160a01b0382161561358c576001600160a01b03821660009081526008602052604081205463ffffffff1690816137825760006137b4565b6001600160a01b038416600090815260076020908152604080832063ffffffff60001987011684529091529020600101545b905060006137c8828563ffffffff6132c016565b90506117ba858484846140e0565b6040805160028082526060808301845292602083019080388339019050509050308160008151811061380457fe5b60200260200101906001600160a01b031690816001600160a01b031681525050600b60019054906101000a90046001600160a01b03166001600160a01b031663ad5c46486040518163ffffffff1660e01b815260040160206040518083038186803b15801561387257600080fd5b505afa158015613886573d6000803e3d6000fd5b505050506040513d602081101561389c57600080fd5b50518151829060019081106138ad57fe5b6001600160a01b039283166020918202929092010152600b546138d8913091610100900416846133ae565b600b546040517f791ac947000000000000000000000000000000000000000000000000000000008152600481018481526000602483018190523060648401819052426084850181905260a060448601908152875160a487015287516101009097046001600160a01b03169663791ac947968a968a9594939092909160c40190602087810191028083838b5b8381101561397b578181015183820152602001613963565b505050509050019650505050505050600060405180830381600087803b1580156139a457600080fd5b505af11580156117ba573d6000803e3d6000fd5b600b546139d590309061010090046001600160a01b0316846133ae565b600b54604080517ff305d719000000000000000000000000000000000000000000000000000000008152306004820181905260248201869052600060448301819052606483015260848201524260a482015290516101009092046001600160a01b03169163f305d71991849160c480830192606092919082900301818588803b158015613a6157600080fd5b505af1158015613a75573d6000803e3d6000fd5b50505050506040513d6060811015612e9d57600080fd5b600c54613aa49030906001600160a01b0316836140a3565b600c60009054906101000a90046001600160a01b03166001600160a01b031663fff6cae96040518163ffffffff1660e01b8152600401600060405180830381600087803b158015613af457600080fd5b505af1158015613b08573d6000803e3d6000fd5b50506040805184815290517ff7d7cccc5d43bccbb3cfa5d9f4b787fc2efdbd284e748d91b810770cd22a1c709350908190036020019150a150565b6040805160028082526060808301845292602083019080388339019050509050600b60019054906101000a90046001600160a01b03166001600160a01b031663ad5c46486040518163ffffffff1660e01b815260040160206040518083038186803b158015613bb157600080fd5b505afa158015613bc5573d6000803e3d6000fd5b505050506040513d6020811015613bdb57600080fd5b505181518290600090613bea57fe5b6001600160a01b039283166020918202929092010152600d54825191169082906001908110613c1557fe5b6001600160a01b03928316602091820292909201810191909152600f54600b54604080517f095ea7b3000000000000000000000000000000000000000000000000000000008152610100909204851660048301526024820187905251919093169263095ea7b39260448083019391928290030181600087803b158015613c9a57600080fd5b505af1158015613cae573d6000803e3d6000fd5b505050506040513d6020811015613cc457600080fd5b5050600b546040517fb6f9de95000000000000000000000000000000000000000000000000000000008152600060048201818152306044840181905242606485018190526080602486019081528751608487015287516101009097046001600160a01b03169663b6f9de95968a96958a9594939092909160a40190602087810191028083838b5b83811015613d63578181015183820152602001613d4b565b50505050905001955050505050506000604051808303818588803b158015613d8a57600080fd5b505af1158015613d9e573d6000803e3d6000fd5b50505050505050565b600f54600b54604080517f095ea7b30000000000000000000000000000000000000000000000000000000081526101009092046001600160a01b03908116600484015260248301859052905192169163095ea7b3916044808201926020929091908290030181600087803b158015613e1e57600080fd5b505af1158015613e32573d6000803e3d6000fd5b505050506040513d6020811015613e4857600080fd5b5050600d54600b54604080517f095ea7b30000000000000000000000000000000000000000000000000000000081526101009092046001600160a01b03908116600484015260248301869052905192169163095ea7b3916044808201926020929091908290030181600087803b158015613ec157600080fd5b505af1158015613ed5573d6000803e3d6000fd5b505050506040513d6020811015613eeb57600080fd5b5050600b54600d54604080517ff305d7190000000000000000000000000000000000000000000000000000000081526001600160a01b0392831660048201526024810186905260006044820181905260648201523060848201524260a482015290516101009093049091169163f305d71991849160c480830192606092919082900301818588803b158015613a6157600080fd5b613f898282612d8f565b613fc45760405162461bcd60e51b81526004018080602001828103825260218152602001806146596021913960400191505060405180910390fd5b6001600160a01b031660009081526020919091526040902080547fffffffffffffffffffffffffffffffffffffffffffffffffffffffffffffff00169055565b61400e8282612d8f565b15614060576040805162461bcd60e51b815260206004820152601f60248201527f526f6c65733a206163636f756e7420616c72656164792068617320726f6c6500604482015290519081900360640190fd5b6001600160a01b031660009081526020919091526040902080547fffffffffffffffffffffffffffffffffffffffffffffffffffffffffffffff00166001179055565b6001600160a01b038084166000908152600660205260408082205485841683529120546140d59291821691168361368d565b61358c838383614260565b6000614104436040518060600160405280603f815260200161467a603f91396143bc565b905060008463ffffffff1611801561414d57506001600160a01b038516600090815260076020908152604080832063ffffffff6000198901811685529252909120548282169116145b1561418a576001600160a01b038516600090815260076020908152604080832063ffffffff60001989011684529091529020600101829055614216565b60408051808201825263ffffffff808416825260208083018681526001600160a01b038a166000818152600784528681208b861682528452868120955186549086167fffffffffffffffffffffffffffffffffffffffffffffffffffffffff00000000918216178755925160019687015590815260089092529390208054928801909116919092161790555b604080518481526020810184905281516001600160a01b038816927fdec2bacdd2f05b59de34da9b523dff8be42e5e38e818c82fdb0bae774387a724928290030190a25050505050565b6001600160a01b0383166142a55760405162461bcd60e51b815260040180806020018281038252602581526020018061481b6025913960400191505060405180910390fd5b6001600160a01b0382166142ea5760405162461bcd60e51b81526004018080602001828103825260238152602001806145226023913960400191505060405180910390fd5b61432d81604051806060016040528060268152602001614633602691396001600160a01b038616600090815260208190526040902054919063ffffffff61359116565b6001600160a01b038085166000908152602081905260408082209390935590841681522054614362908263ffffffff6132c016565b6001600160a01b038084166000818152602081815260409182902094909455805185815290519193928716927fddf252ad1be2c89b69c2b068fc378daa952ba7f163c4a11628f55a4df523b3ef92918290030190a3505050565b60008164010000000084106144125760405162461bcd60e51b81526020600482018181528351602484015283519092839260449091019190850190808383600083156135e55781810151838201526020016135cd565b509192915050565b604080518082019091526000808252602082015290565b6001600160a01b03821661448c576040805162461bcd60e51b815260206004820152601f60248201527f45524332303a206d696e7420746f20746865207a65726f206164647265737300604482015290519081900360640190fd5b60025461449f908263ffffffff6132c016565b6002556001600160a01b0382166000908152602081905260409020546144cb908263ffffffff6132c016565b6001600160a01b0383166000818152602081815260408083209490945583518581529351929391927fddf252ad1be2c89b69c2b068fc378daa952ba7f163c4a11628f55a4df523b3ef9281900390910190a3505056fe45524332303a207472616e7366657220746f20746865207a65726f2061646472657373466f67546f6b656e3a3a736574556e69737761705632526f757465723a20616c726561647920736574506175736572526f6c653a2063616c6c657220646f6573206e6f742068617665207468652050617573657220726f6c654552433230476f7665726e616e63653a3a64656c656761746542795369673a20696e76616c6964207369676e617475726545524332303a20617070726f766520746f20746865207a65726f206164647265737345524332305472616e736665724c69717569646974794c6f636b3a3a6c6f636b4c69717569646974793a206c6f636b20616d6f756e742063616e6e6f74206265203045524332303a207472616e7366657220616d6f756e7420657863656564732062616c616e6365526f6c65733a206163636f756e7420646f6573206e6f74206861766520726f6c654552433230476f7665726e616e63653a3a5f7772697465436865636b706f696e743a20626c6f636b206e756d62657220657863656564732033322062697473454950373132446f6d61696e28737472696e67206e616d652c75696e7432353620636861696e49642c6164647265737320766572696679696e67436f6e747261637429536166654d6174683a206d756c7469706c69636174696f6e206f766572666c6f7745524332305472616e736665724c69717569646974794c6f636b3a3a6c6f636b4c69717569646974793a206c6f636b20616d6f756e7420686967686572207468616e206c6f636b61626c652062616c616e636545524332303a207472616e7366657220616d6f756e74206578636565647320616c6c6f77616e6365526f6c65733a206163636f756e7420697320746865207a65726f20616464726573734552433230476f7665726e616e63653a3a64656c656761746542795369673a207369676e617475726520657870697265645369676e6572526f6c653a2063616c6c657220646f6573206e6f74206861766520746865205369676e657220726f6c6545524332303a207472616e736665722066726f6d20746865207a65726f20616464726573734552433230476f7665726e616e63653a3a6765745072696f72566f7465733a206e6f74207965742064657465726d696e656445524332303a20617070726f76652066726f6d20746865207a65726f20616464726573734552433230476f7665726e616e63653a3a64656c656761746542795369673a20696e76616c6964206e6f6e636545524332305472616e736665724c69717569646974794c6f636b3a3a6275726e4c69717569646974793a206275726e20616d6f756e742063616e6e6f742062652030466f67546f6b656e3a3a736574556e69737761705632506169723a20616c72656164792073657444656c65676174696f6e28616464726573732064656c6567617465652c75696e74323536206e6f6e63652c75696e74323536206578706972792945524332303a2064656372656173656420616c6c6f77616e63652062656c6f77207a65726fa265627a7a723158201b0992ca10100ad95683829731942c2390f93568b9a70830df923881fc93e0ae64736f6c634300051100324552433230476f7665726e616e63653a3a5f7772697465436865636b706f696e743a20626c6f636b206e756d62657220657863656564732033322062697473526f6c65733a206163636f756e7420697320746865207a65726f2061646472657373",
  "source": "/*\r\n         \r\n        \r\n      \r\n         \r\n        \r\n               \r\n                     \r\n                 \r\n                         \r\n                  \r\n            \r\n                                \r\n                           \r\n              \r\n                    \r\n\r\nFOG is an experimental, governance branch of the LIQ (LIQUID) token ecosystem.\r\n\r\nFOG is a fixed supply token that is acquired by pairing LIQ/ETH LP and staking\r\nthe UniV2 LP tokens at https://liquidefi.co/ \r\n\r\nFOG is then emitted to staking LP providers.\r\n\r\nThe benefits of holding FOG are twofold:\r\n\r\n1. FOG LP providers will be rewarded with ETH and FOG from each \r\nFOG transaction. Initially, these rewards are pooled in the contract. \r\nAt any time, a provider can call the RewardLiquidityProviders command (Condensate)\r\non the contract, or 'Condensate.exe' on the website, which then automatically \r\ndivides and dispenses rewards to LP holders (this removes any need to stake the FOG LP). \r\nThe reward amount an individual provider receives is based on said LP providers share \r\nof the pool.\r\n\r\nHow does this work? \r\n\r\nFOG collects a 7.5% fee on all transfers (which can be later adjusted). \r\nThis fee is then split between ***three functions:*** \r\n\r\n- 60% to adding permanently locked FOG LP \r\n- 30% FOG/ETH sent to the UNIV2 pool. This is then distributed to \r\nproviders based on your pool share percentage after calling the \r\nRewardLiquidityProviders command (aka Condensate.exe)\r\n- 10% goes to market buying LIQ which is then converted to LIQ/ETH LP. \r\n\r\n2. FOG is the governance token to the LIQ ecosystem.\r\n\r\nAll rates are adjustable by way of a DAO, controlled by FOG holders / voting.\r\nFOG will have additional governance abilities to be disclosed later as new\r\nstrategies reveal themselves to continue to evolve the LIQ ecosystem. \r\n\r\n*/\r\n\r\npragma solidity ^0.5.17;\r\n\r\nimport \"@openzeppelin/contracts/token/ERC20/ERC20.sol\";\r\nimport \"@openzeppelin/contracts/token/ERC20/ERC20Detailed.sol\";\r\nimport \"./DoublePoggerino.sol\";\r\nimport \"./Governance.sol\";\r\nimport \"@openzeppelin/contracts/access/roles/SignerRole.sol\";\r\n\r\ncontract FOG is \r\n    ERC20,\r\n    ERC20Detailed(\"Fog\", \"FOG\", 18),\r\n    // governance must be before transfer liquidity lock\r\n    // or delegates are not updated correctly\r\n    Governance,\r\n    DoublePoggerino,\r\n    SignerRole\r\n{\r\n    constructor() public {\r\n        // mint tokens which will initially belong to deployer\r\n        // deployer should go seed the pair with some initial liquidity\r\n        _mint(msg.sender, 1000000 * 10**18);\r\n    }\r\n         \r\n        \r\n    function setUniswapV2Router(address _uniswapV2Router) public onlySigner {\r\n        require(uniswapV2Router == address(0), \"FogToken::setUniswapV2Router: already set\");\r\n        uniswapV2Router = _uniswapV2Router;\r\n    }\r\n\r\n    function setUniswapV2Pair(address _uniswapV2Pair) public onlySigner {\r\n        require(uniswapV2Pair == address(0), \"FogToken::setUniswapV2Pair: already set\");\r\n        uniswapV2Pair = _uniswapV2Pair;\r\n    }\r\n    \r\n    \r\n    function setErc20TokenAddress(address _tokenAddress) public onlySigner {\r\n            tokenAddress = _tokenAddress;\r\n        emit TokenAddressUpdate(tokenAddress);\r\n     }\r\n     \r\n     function setErc20TokenPairAddress(address _tokenAddressPair) public onlySigner {\r\n        tokenAddressPair = _tokenAddressPair;\r\n         emit TokenAddressPairUpdate(tokenAddress); \r\n     }\r\n     \r\n     function setWethAddress(address _wethAddress) public onlySigner {\r\n         wethAddress = _wethAddress;\r\n         emit WethAddressUpdate(wethAddress); \r\n     } \r\n\r\n   function updateFees(uint8 _feeDecimals, uint32 _feePercentage)\r\n        public\r\n        onlySigner\r\n    {\r\n        feeDecimals = _feeDecimals;\r\n        feePercentage = _feePercentage;\r\n        emit FeeUpdated(_feeDecimals, _feePercentage);\r\n    }\r\n    \r\n    function updateRewardsSplit(uint32 _fogRewardPercentage)\r\n        public\r\n        onlySigner\r\n    {\r\n        fogRewardPercentage = _fogRewardPercentage;\r\n        emit RewardsUpdate(_fogRewardPercentage);\r\n    }\r\n    \r\n    function updateLpSplits(uint32 _fogLockPercentage, uint32 _tokenLockPercentage) public onlySigner \r\n    {\r\n        fogLockPercentage = _fogLockPercentage;\r\n        tokenLockPercentage = _tokenLockPercentage;\r\n        emit LocksUpdate(_fogLockPercentage, _tokenLockPercentage);\r\n    }\r\n    \r\n        // this is to remove the token LP that fog contract buys\r\n        // this may or may not be used as future incentives\r\n        // UNABLE TO REMOVE FOG LP due to require\r\n        \r\n    function withdrawForeignTokens(address _tokenContract, address _to) onlySigner public returns (bool) {\r\n        require(_tokenContract != address(this), \"cannot withdraw Fog\");\r\n        require(_tokenContract != address(uniswapV2Pair), \"cannot withdraw FOG LP\");\r\n        ERC20 token = ERC20(_tokenContract);\r\n        uint256 amount = token.balanceOf(address(this));\r\n        return token.transfer(_to, amount);\r\n    }\r\n\r\n}\r\n\r\n\r\n   \r\n\r\n",
  "sourcePath": "/mnt/c/Users/JP/solidity/code/FOG/contracts/FOG.sol",
  "compiler": {
    "name": "solc",
    "version": "0.5.17+commit.d19bba13.Emscripten.clang"
  },
  "schemaVersion": "3.3.2",
  "updatedAt": "2020-12-04T10:29:54.214Z",
  "networkType": "ethereum",
  "devdoc": {
    "methods": {
      "allowance(address,address)": {
        "details": "See {IERC20-allowance}."
      },
      "balanceOf(address)": {
        "details": "See {IERC20-balanceOf}."
      },
      "decimals()": {
        "details": "Returns the number of decimals used to get its user representation. For example, if `decimals` equals `2`, a balance of `505` tokens should be displayed to a user as `5,05` (`505 / 10 ** 2`).     * Tokens usually opt for a value of 18, imitating the relationship between Ether and Wei.     * NOTE: This information is only used for _display_ purposes: it in no way affects any of the arithmetic of the contract, including {IERC20-balanceOf} and {IERC20-transfer}."
      },
      "delegate(address)": {
        "params": {
          "delegatee": "The address to delegate votes to"
        }
      },
      "delegateBySig(address,uint256,uint256,uint8,bytes32,bytes32)": {
        "params": {
          "delegatee": "The address to delegate votes to",
          "expiry": "The time at which to expire the signature",
          "nonce": "The contract state required to match the signature",
          "r": "Half of the ECDSA signature pair",
          "s": "Half of the ECDSA signature pair",
          "v": "The recovery byte of the signature"
        }
      },
      "delegates(address)": {
        "params": {
          "delegator": "The address to get delegatee for"
        }
      },
      "getCurrentVotes(address)": {
        "params": {
          "account": "The address to get votes balance"
        },
        "return": "The number of current votes for `account`"
      },
      "getPriorVotes(address,uint256)": {
        "details": "Block number must be a finalized block or else this function will revert to prevent misinformation.",
        "params": {
          "account": "The address of the account to check",
          "blockNumber": "The block number to get the vote balance at"
        },
        "return": "The number of votes the account had as of the given block"
      },
      "name()": {
        "details": "Returns the name of the token."
      },
      "pause()": {
        "details": "Called by a pauser to pause, triggers stopped state."
      },
      "paused()": {
        "details": "Returns true if the contract is paused, and false otherwise."
      },
      "symbol()": {
        "details": "Returns the symbol of the token, usually a shorter version of the name."
      },
      "totalSupply()": {
        "details": "See {IERC20-totalSupply}."
      },
      "unpause()": {
        "details": "Called by a pauser to unpause, returns to normal state."
      }
    }
  },
  "userdoc": {
    "methods": {
      "delegate(address)": {
        "notice": "Delegate votes from `msg.sender` to `delegatee`"
      },
      "delegateBySig(address,uint256,uint256,uint8,bytes32,bytes32)": {
        "notice": "Delegates votes from signatory to `delegatee`"
      },
      "delegates(address)": {
        "notice": "Delegate votes from `msg.sender` to `delegatee`"
      },
      "getCurrentVotes(address)": {
        "notice": "Gets the current votes balance for `account`"
      },
      "getPriorVotes(address,uint256)": {
        "notice": "Determine the prior number of votes for an account as of a block number"
      }
    }
  }
}